Component: ARM Compiler 5.06 (build 20) Tool: armlink [4d35a3]

==============================================================================

Section Cross References

    main.o(i.Main_Init) refers to delay_1.o(i.delay_init) for delay_init
    main.o(i.Main_Init) refers to sys.o(i.NVIC_Configuration) for NVIC_Configuration
    main.o(i.Main_Init) refers to gpio_motor.o(i.GPIO_Motor_Init) for GPIO_Motor_Init
    main.o(i.Main_Init) refers to key8.o(i.GPIO_Key_Init) for GPIO_Key_Init
    main.o(i.Main_Init) refers to gpio_motor.o(i.GPIO_IronHand_Init) for GPIO_IronHand_Init
    main.o(i.Main_Init) refers to motor.o(i.Init_Motor_Struct) for Init_Motor_Struct
    main.o(i.Main_Init) refers to motor_ctrl.o(i.Set_Motor_EN) for Set_Motor_EN
    main.o(i.Main_Init) refers to motor_ctrl.o(i.Set_Motor_Dir) for Set_Motor_Dir
    main.o(i.Main_Init) refers to pwm.o(i.TIM2_PWM_Config_Init) for TIM2_PWM_Config_Init
    main.o(i.Main_Init) refers to pwm.o(i.TIM3_PWM_Config_Init) for TIM3_PWM_Config_Init
    main.o(i.Main_Init) refers to pwm.o(i.TIM4_PWM_Config_Init) for TIM4_PWM_Config_Init
    main.o(i.Main_Init) refers to delay_1.o(i.delay_ms) for delay_ms
    main.o(i.Main_Init) refers to timer1.o(i.TIM1_Config_Init) for TIM1_Config_Init
    main.o(i.Main_Init) refers to main.o(.bss) for motor1
    main.o(i.Step) refers to fflt_clz.o(x$fpl$ffltu) for __aeabi_ui2f
    main.o(i.Step) refers to motor_ctrl.o(i.Start_Motor_withS) for Start_Motor_withS
    main.o(i.Step) refers to stm32f10x_tim.o(i.TIM_Cmd) for TIM_Cmd
    main.o(i.Step) refers to main.o(.bss) for motor1
==============================================================================

Removing Unused input sections from the image.

    Removing system_stm32f10x.o(i.SystemCoreClockUpdate), (164 bytes).
    Removing ironhand.o(i.CloseHand), (44 bytes).
    Removing ironhand.o(i.HoldHand), (24 bytes).
    Removing ironhand.o(i.OpenHand), (44 bytes).
    Removing motor_ctrl.o(i.Change_Motor_Dir), (48 bytes).
    Removing motor_ctrl.o(i.Get_Motor_RunningSpeed), (26 bytes).
    Removing delay_1.o(i.delay_us), (76 bytes).
    Removing usart.o(i.fputc), (28 bytes).
    Removing usart.o(i.uart_init), (160 bytes).
    Removing core_cm3.o(.emb_text), (32 bytes).
    Removing misc.o(i.NVIC_SetVectorTable), (20 bytes).
    Removing misc.o(i.NVIC_SystemLPConfig), (32 bytes).
    Removing stm32f10x_exti.o(i.EXTI_ClearFlag), (12 bytes).
    Removing stm32f10x_exti.o(i.EXTI_ClearITPendingBit), (12 bytes).
    Removing stm32f10x_exti.o(i.EXTI_DeInit), (36 bytes).
    Removing stm32f10x_exti.o(i.EXTI_GenerateSWInterrupt), (16 bytes).
    Removing stm32f10x_exti.o(i.EXTI_GetFlagStatus), (24 bytes).
    Removing stm32f10x_exti.o(i.EXTI_GetITStatus), (40 bytes).
==============================================================================

Image Symbol Table

    Local Symbols

    Symbol Name                              Value     Ov Type        Size  Object(Section)

    ../clib/angel/boardlib.s                 0x00000000   Number         0  boardinit1.o ABSOLUTE
    ../clib/angel/boardlib.s                 0x00000000   Number         0  boardinit2.o ABSOLUTE
    ../clib/angel/boardlib.s                 0x00000000   Number         0  boardinit3.o ABSOLUTE
    ../clib/angel/boardlib.s                 0x00000000   Number         0  boardshut.o ABSOLUTE
    ../clib/angel/handlers.s                 0x00000000   Number         0  __scatter_copy.o ABSOLUTE
    ../clib/angel/handlers.s                 0x00000000   Number         0  __scatter_zi.o ABSOLUTE
    ../clib/angel/kernel.s                   0x00000000   Number         0  __rtentry2.o ABSOLUTE
    ../clib/angel/kernel.s                   0x00000000   Number         0  __rtentry.o ABSOLUTE
    ../clib/angel/kernel.s                   0x00000000   Number         0  __rtentry4.o ABSOLUTE
    ../clib/angel/kernel.s                   0x00000000   Number         0  rtexit.o ABSOLUTE
    ../clib/angel/kernel.s                   0x00000000   Number         0  rtexit2.o ABSOLUTE
    ../clib/angel/rt.s                       0x00000000   Number         0  rt_raise.o ABSOLUTE
    ../clib/angel/scatter.s                  0x00000000   Number         0  __scatter.o ABSOLUTE
    ../clib/angel/startup.s                  0x00000000   Number         0  __main.o ABSOLUTE
    ../clib/angel/sys.s                      0x00000000   Number         0  indicate_semi.o ABSOLUTE
    ../clib/angel/sys.s                      0x00000000   Number         0  use_no_semi.o ABSOLUTE
    ../clib/angel/sys.s                      0x00000000   Number         0  sys_stackheap_outer.o ABSOLUTE
    ../clib/angel/sys.s                      0x00000000   Number         0  libspace.o ABSOLUTE
    ../clib/angel/sys.s                      0x00000000   Number         0  use_no_semi_2.o ABSOLUTE
    ../clib/angel/sysapp.c                   0x00000000   Number         0  sys_command.o ABSOLUTE
    ../clib/angel/sysapp.c                   0x00000000   Number         0  sys_wrch.o ABSOLUTE
    ../clib/armsys.c                         0x00000000   Number         0  no_argv.o ABSOLUTE
    ../clib/armsys.c                         0x00000000   Number         0  _get_argv_nomalloc.o ABSOLUTE
    ../clib/armsys.c                         0x00000000   Number         0  argv_veneer.o ABSOLUTE
    ../clib/armsys.c                         0x00000000   Number         0  argv_veneer.o ABSOLUTE
    ../clib/heapalloc.c                      0x00000000   Number         0  hrguard.o ABSOLUTE
    ../clib/heapaux.c                        0x00000000   Number         0  heapauxi.o ABSOLUTE
    ../clib/libinit.s                        0x00000000   Number         0  libshutdown.o ABSOLUTE
    ../clib/libinit.s                        0x00000000   Number         0  libshutdown2.o ABSOLUTE
    ../clib/libinit.s                        0x00000000   Number         0  libinit2.o ABSOLUTE
    ../clib/libinit.s                        0x00000000   Number         0  libinit.o ABSOLUTE
    ../clib/signal.c                         0x00000000   Number         0  defsig_other.o ABSOLUTE
    ../clib/signal.c                         0x00000000   Number         0  defsig_segv_inner.o ABSOLUTE
    ../clib/signal.c                         0x00000000   Number         0  defsig_rtmem_outer.o ABSOLUTE
    ../clib/signal.c                         0x00000000   Number         0  defsig_cppl_inner.o ABSOLUTE
    ../clib/signal.c                         0x00000000   Number         0  defsig_pvfn_inner.o ABSOLUTE
    ../clib/signal.c                         0x00000000   Number         0  defsig_stak_inner.o ABSOLUTE
    ../clib/signal.c                         0x00000000   Number         0  defsig_rtred_inner.o ABSOLUTE
    ../clib/signal.c                         0x00000000   Number         0  defsig_rtmem_formal.o ABSOLUTE
    ../clib/signal.c                         0x00000000   Number         0  defsig_abrt_inner.o ABSOLUTE
    ../clib/signal.c                         0x00000000   Number         0  defsig_fpe_inner.o ABSOLUTE
    ../clib/signal.c                         0x00000000   Number         0  defsig_general.o ABSOLUTE
    ../clib/signal.c                         0x00000000   Number         0  __raise.o ABSOLUTE
    ../clib/signal.c                         0x00000000   Number         0  defsig_rtmem_inner.o ABSOLUTE
    ../clib/signal.c                         0x00000000   Number         0  defsig_exit.o ABSOLUTE
    ../clib/signal.s                         0x00000000   Number         0  defsig.o ABSOLUTE
    ../clib/stdlib.c                         0x00000000   Number         0  exit.o ABSOLUTE
    ../fplib/fcmpi.s                         0x00000000   Number         0  fcmpi.o ABSOLUTE
    ../fplib/feqf.s                          0x00000000   Number         0  feqf.o ABSOLUTE
    ../fplib/fflt.s                          0x00000000   Number         0  fflt_clz.o ABSOLUTE
    ../fplib/fleqf.s                         0x00000000   Number         0  fleqf.o ABSOLUTE
    ../fplib/fmul.s                          0x00000000   Number         0  fmul.o ABSOLUTE
    ../fplib/fnaninf.s                       0x00000000   Number         0  fnaninf.o ABSOLUTE
    ../fplib/fpinit.s                        0x00000000   Number         0  fpinit.o ABSOLUTE
    ../fplib/fretinf.s                       0x00000000   Number         0  fretinf.o ABSOLUTE
    ../fplib/frleqf.s                        0x00000000   Number         0  frleqf.o ABSOLUTE
    ../fplib/usenofp.s                       0x00000000   Number         0  usenofp.o ABSOLUTE
    ..\CORE\core_cm3.c                       0x00000000   Number         0  core_cm3.o ABSOLUTE
    ..\CORE\startup_stm32f10x_md.s           0x00000000   Number         0  startup_stm32f10x_md.o ABSOLUTE
    ..\HARDWARE\GPIO_Motor\GPIO_Motor.c      0x00000000   Number         0  gpio_motor.o ABSOLUTE
    ..\HARDWARE\IronHand\IronHand.c          0x00000000   Number         0  ironhand.o ABSOLUTE
    ..\HARDWARE\KEY\key8.c                   0x00000000   Number         0  key8.o ABSOLUTE
    ..\HARDWARE\MOTOR_CTRL\motor.c           0x00000000   Number         0  motor.o ABSOLUTE
    ..\HARDWARE\MOTOR_CTRL\motor_ctrl.c      0x00000000   Number         0  motor_ctrl.o ABSOLUTE
    ..\HARDWARE\PWM\pwm.c                    0x00000000   Number         0  pwm.o ABSOLUTE
    ..\HARDWARE\TIMER\timer1.c               0x00000000   Number         0  timer1.o ABSOLUTE
    ..\STM32F10x_FWLib\src\misc.c            0x00000000   Number         0  misc.o ABSOLUTE
    ..\STM32F10x_FWLib\src\stm32f10x_adc.c   0x00000000   Number         0  stm32f10x_adc.o ABSOLUTE
    ..\STM32F10x_FWLib\src\stm32f10x_bkp.c   0x00000000   Number         0  stm32f10x_bkp.o ABSOLUTE
    ..\STM32F10x_FWLib\src\stm32f10x_can.c   0x00000000   Number         0  stm32f10x_can.o ABSOLUTE
    ..\STM32F10x_FWLib\src\stm32f10x_cec.c   0x00000000   Number         0  stm32f10x_cec.o ABSOLUTE
    ..\STM32F10x_FWLib\src\stm32f10x_crc.c   0x00000000   Number         0  stm32f10x_crc.o ABSOLUTE
    ..\STM32F10x_FWLib\src\stm32f10x_dac.c   0x00000000   Number         0  stm32f10x_dac.o ABSOLUTE
    ..\STM32F10x_FWLib\src\stm32f10x_dbgmcu.c 0x00000000   Number         0  stm32f10x_dbgmcu.o ABSOLUTE
    ..\STM32F10x_FWLib\src\stm32f10x_dma.c   0x00000000   Number         0  stm32f10x_dma.o ABSOLUTE
    ..\STM32F10x_FWLib\src\stm32f10x_exti.c  0x00000000   Number         0  stm32f10x_exti.o ABSOLUTE
    ..\STM32F10x_FWLib\src\stm32f10x_flash.c 0x00000000   Number         0  stm32f10x_flash.o ABSOLUTE
    ..\STM32F10x_FWLib\src\stm32f10x_fsmc.c  0x00000000   Number         0  stm32f10x_fsmc.o ABSOLUTE
    ..\STM32F10x_FWLib\src\stm32f10x_gpio.c  0x00000000   Number         0  stm32f10x_gpio.o ABSOLUTE
    ..\STM32F10x_FWLib\src\stm32f10x_i2c.c   0x00000000   Number         0  stm32f10x_i2c.o ABSOLUTE
    ..\STM32F10x_FWLib\src\stm32f10x_iwdg.c  0x00000000   Number         0  stm32f10x_iwdg.o ABSOLUTE
    ..\STM32F10x_FWLib\src\stm32f10x_pwr.c   0x00000000   Number         0  stm32f10x_pwr.o ABSOLUTE
    ..\STM32F10x_FWLib\src\stm32f10x_rcc.c   0x00000000   Number         0  stm32f10x_rcc.o ABSOLUTE
    ..\STM32F10x_FWLib\src\stm32f10x_rtc.c   0x00000000   Number         0  stm32f10x_rtc.o ABSOLUTE
    ..\STM32F10x_FWLib\src\stm32f10x_sdio.c  0x00000000   Number         0  stm32f10x_sdio.o ABSOLUTE
    ..\STM32F10x_FWLib\src\stm32f10x_spi.c   0x00000000   Number         0  stm32f10x_spi.o ABSOLUTE
    ..\STM32F10x_FWLib\src\stm32f10x_tim.c   0x00000000   Number         0  stm32f10x_tim.o ABSOLUTE
    ..\STM32F10x_FWLib\src\stm32f10x_usart.c 0x00000000   Number         0  stm32f10x_usart.o ABSOLUTE
    ..\STM32F10x_FWLib\src\stm32f10x_wwdg.c  0x00000000   Number         0  stm32f10x_wwdg.o ABSOLUTE
    ..\SYSTEM\delay\delay.c                  0x00000000   Number         0  delay_1.o ABSOLUTE
    ..\SYSTEM\sys\sys.c                      0x00000000   Number         0  sys.o ABSOLUTE
    ..\SYSTEM\usart\usart.c                  0x00000000   Number         0  usart.o ABSOLUTE
    ..\\CORE\\core_cm3.c                     0x00000000   Number         0  core_cm3.o ABSOLUTE
    dc.s                                     0x00000000   Number         0  dc.o ABSOLUTE
    main.c                                   0x00000000   Number         0  main.o ABSOLUTE
    stm32f10x_it.c                           0x00000000   Number         0  stm32f10x_it.o ABSOLUTE
    system_stm32f10x.c                       0x00000000   Number         0  system_stm32f10x.o ABSOLUTE
    RESET                                    0x08000000   Section      236  startup_stm32f10x_md.o(RESET)
    !!!main                                  0x080000ec   Section        8  __main.o(!!!main)
    !!!scatter                               0x080000f4   Section       52  __scatter.o(!!!scatter)
    !!handler_copy                           0x08000128   Section       26  __scatter_copy.o(!!handler_copy)
    !!handler_zi                             0x08000144   Section       28  __scatter_zi.o(!!handler_zi)
    .ARM.Collect$$libinit$$00000000          0x08000160   Section        2  libinit.o(.ARM.Collect$$libinit$$00000000)
    .ARM.Collect$$libinit$$00000002          0x08000162   Section        0  libinit2.o(.ARM.Collect$$libinit$$00000002)
    .ARM.Collect$$libinit$$00000004          0x08000162   Section        0  libinit2.o(.ARM.Collect$$libinit$$00000004)
    .ARM.Collect$$libinit$$0000000A          0x08000162   Section        0  libinit2.o(.ARM.Collect$$libinit$$0000000A)
    .ARM.Collect$$libinit$$0000000C          0x08000162   Section        0  libinit2.o(.ARM.Collect$$libinit$$0000000C)
    .ARM.Collect$$libinit$$0000000E          0x08000162   Section        0  libinit2.o(.ARM.Collect$$libinit$$0000000E)
    .ARM.Collect$$libinit$$00000011          0x08000162   Section        0  libinit2.o(.ARM.Collect$$libinit$$00000011)
    .ARM.Collect$$libinit$$00000013          0x08000162   Section        0  libinit2.o(.ARM.Collect$$libinit$$00000013)
    .ARM.Collect$$libinit$$00000015          0x08000162   Section        0  libinit2.o(.ARM.Collect$$libinit$$00000015)
    .ARM.Collect$$libinit$$00000017          0x08000162   Section        0  libinit2.o(.ARM.Collect$$libinit$$00000017)
    .ARM.Collect$$libinit$$00000019          0x08000162   Section        0  libinit2.o(.ARM.Collect$$libinit$$00000019)
    .ARM.Collect$$libinit$$0000001B          0x08000162   Section        0  libinit2.o(.ARM.Collect$$libinit$$0000001B)
    .ARM.Collect$$libinit$$0000001D          0x08000162   Section        0  libinit2.o(.ARM.Collect$$libinit$$0000001D)
    .ARM.Collect$$libinit$$0000001F          0x08000162   Section        0  libinit2.o(.ARM.Collect$$libinit$$0000001F)
    .ARM.Collect$$libinit$$00000021          0x08000162   Section        0  libinit2.o(.ARM.Collect$$libinit$$00000021)
    .ARM.Collect$$libinit$$00000023          0x08000162   Section        0  libinit2.o(.ARM.Collect$$libinit$$00000023)
    .ARM.Collect$$libinit$$00000025          0x08000162   Section        0  libinit2.o(.ARM.Collect$$libinit$$00000025)
    .ARM.Collect$$libinit$$0000002C          0x08000162   Section        0  libinit2.o(.ARM.Collect$$libinit$$0000002C)
    .ARM.Collect$$libinit$$0000002E          0x08000162   Section        0  libinit2.o(.ARM.Collect$$libinit$$0000002E)
    .ARM.Collect$$libinit$$00000030          0x08000162   Section        0  libinit2.o(.ARM.Collect$$libinit$$00000030)
    .ARM.Collect$$libinit$$00000032          0x08000162   Section        0  libinit2.o(.ARM.Collect$$libinit$$00000032)
    .ARM.Collect$$libinit$$00000033          0x08000162   Section        2  libinit2.o(.ARM.Collect$$libinit$$00000033)
    .ARM.Collect$$libshutdown$$00000000      0x08000164   Section        2  libshutdown.o(.ARM.Collect$$libshutdown$$00000000)
    .ARM.Collect$$libshutdown$$00000002      0x08000166   Section        0  libshutdown2.o(.ARM.Collect$$libshutdown$$00000002)
    .ARM.Collect$$libshutdown$$00000004      0x08000166   Section        0  libshutdown2.o(.ARM.Collect$$libshutdown$$00000004)
    .ARM.Collect$$libshutdown$$00000007      0x08000166   Section        0  libshutdown2.o(.ARM.Collect$$libshutdown$$00000007)
    .ARM.Collect$$libshutdown$$0000000A      0x08000166   Section        0  libshutdown2.o(.ARM.Collect$$libshutdown$$0000000A)
    .ARM.Collect$$libshutdown$$0000000C      0x08000166   Section        0  libshutdown2.o(.ARM.Collect$$libshutdown$$0000000C)
    .ARM.Collect$$libshutdown$$0000000F      0x08000166   Section        0  libshutdown2.o(.ARM.Collect$$libshutdown$$0000000F)
    .ARM.Collect$$libshutdown$$00000010      0x08000166   Section        2  libshutdown2.o(.ARM.Collect$$libshutdown$$00000010)
    .ARM.Collect$$rtentry$$00000000          0x08000168   Section        0  __rtentry.o(.ARM.Collect$$rtentry$$00000000)
    .ARM.Collect$$rtentry$$00000002          0x08000168   Section        0  __rtentry2.o(.ARM.Collect$$rtentry$$00000002)
    .ARM.Collect$$rtentry$$00000004          0x08000168   Section        6  __rtentry4.o(.ARM.Collect$$rtentry$$00000004)
    .ARM.Collect$$rtentry$$00000009          0x0800016e   Section        0  __rtentry2.o(.ARM.Collect$$rtentry$$00000009)
    .ARM.Collect$$rtentry$$0000000A          0x0800016e   Section        4  __rtentry2.o(.ARM.Collect$$rtentry$$0000000A)
    .ARM.Collect$$rtentry$$0000000C          0x08000172   Section        0  __rtentry2.o(.ARM.Collect$$rtentry$$0000000C)
    .ARM.Collect$$rtentry$$0000000D          0x08000172   Section        8  __rtentry2.o(.ARM.Collect$$rtentry$$0000000D)
    .ARM.Collect$$rtexit$$00000000           0x0800017a   Section        2  rtexit.o(.ARM.Collect$$rtexit$$00000000)
    .ARM.Collect$$rtexit$$00000002           0x0800017c   Section        0  rtexit2.o(.ARM.Collect$$rtexit$$00000002)
    .ARM.Collect$$rtexit$$00000003           0x0800017c   Section        4  rtexit2.o(.ARM.Collect$$rtexit$$00000003)
    .ARM.Collect$$rtexit$$00000004           0x08000180   Section        6  rtexit2.o(.ARM.Collect$$rtexit$$00000004)
    .text                                    0x08000188   Section       64  startup_stm32f10x_md.o(.text)
    .text                                    0x080001c8   Section        2  use_no_semi_2.o(.text)
    .text                                    0x080001ca   Section        0  heapauxi.o(.text)
    .text                                    0x080001d0   Section        2  use_no_semi.o(.text)
    .text                                    0x080001d2   Section       74  sys_stackheap_outer.o(.text)
    .text                                    0x0800021c   Section        0  exit.o(.text)
    .text                                    0x08000230   Section        8  libspace.o(.text)
    i.BusFault_Handler                       0x08000238   Section        0  stm32f10x_it.o(i.BusFault_Handler)
    i.DebugMon_Handler                       0x0800023c   Section        0  stm32f10x_it.o(i.DebugMon_Handler)
    i.GPIO_Init                              0x0800023e   Section        0  stm32f10x_gpio.o(i.GPIO_Init)
    i.GPIO_IronHand_Init                     0x08000354   Section        0  gpio_motor.o(i.GPIO_IronHand_Init)
    i.GPIO_Key_Init                          0x08000388   Section        0  key8.o(i.GPIO_Key_Init)
    i.GPIO_Motor_Init                        0x080003b0   Section        0  gpio_motor.o(i.GPIO_Motor_Init)
    i.GPIO_ReadInputDataBit                  0x08000410   Section        0  stm32f10x_gpio.o(i.GPIO_ReadInputDataBit)
    i.GPIO_ResetBits                         0x08000422   Section        0  stm32f10x_gpio.o(i.GPIO_ResetBits)
    i.GPIO_SetBits                           0x08000426   Section        0  stm32f10x_gpio.o(i.GPIO_SetBits)
    i.Get_Motor_RunningState                 0x0800042a   Section        0  motor_ctrl.o(i.Get_Motor_RunningState)
    i.HardFault_Handler                      0x08000444   Section        0  stm32f10x_it.o(i.HardFault_Handler)
    i.Init_Motor_Struct                      0x08000448   Section        0  motor.o(i.Init_Motor_Struct)
    i.Key8_scan                              0x080004c4   Section        0  key8.o(i.Key8_scan)
    i.Main_Init                              0x0800062c   Section        0  main.o(i.Main_Init)
    i.MemManage_Handler                      0x080006dc   Section        0  stm32f10x_it.o(i.MemManage_Handler)
    i.NMI_Handler                            0x080006e0   Section        0  stm32f10x_it.o(i.NMI_Handler)
    i.NVIC_Configuration                     0x080006e2   Section        0  sys.o(i.NVIC_Configuration)
    i.NVIC_Init                              0x080006f0   Section        0  misc.o(i.NVIC_Init)
    i.NVIC_PriorityGroupConfig               0x08000760   Section        0  misc.o(i.NVIC_PriorityGroupConfig)
    i.PendSV_Handler                         0x08000774   Section        0  stm32f10x_it.o(i.PendSV_Handler)
    i.RCC_APB1PeriphClockCmd                 0x08000778   Section        0  stm32f10x_rcc.o(i.RCC_APB1PeriphClockCmd)
    i.RCC_APB2PeriphClockCmd                 0x08000798   Section        0  stm32f10x_rcc.o(i.RCC_APB2PeriphClockCmd)
    i.SVC_Handler                            0x080007b8   Section        0  stm32f10x_it.o(i.SVC_Handler)
    i.SetSysClock                            0x080007ba   Section        0  system_stm32f10x.o(i.SetSysClock)
    SetSysClock                              0x080007bb   Thumb Code     8  system_stm32f10x.o(i.SetSysClock)
    i.SetSysClockTo72                        0x080007c4   Section        0  system_stm32f10x.o(i.SetSysClockTo72)
    SetSysClockTo72                          0x080007c5   Thumb Code   214  system_stm32f10x.o(i.SetSysClockTo72)
    i.Set_Motor_Dir                          0x080008a4   Section        0  motor_ctrl.o(i.Set_Motor_Dir)
    i.Set_Motor_EN                           0x08000910   Section        0  motor_ctrl.o(i.Set_Motor_EN)
    i.Set_Motor_Speed                        0x0800098c   Section        0  motor_ctrl.o(i.Set_Motor_Speed)
    i.Start_Motor_withS                      0x08000994   Section        0  motor_ctrl.o(i.Start_Motor_withS)
    i.Step                                   0x08000a14   Section        0  main.o(i.Step)
    i.Stop_Motor_withS                       0x08000ae4   Section        0  motor_ctrl.o(i.Stop_Motor_withS)
    i.SysTick_CLKSourceConfig                0x08000b68   Section        0  misc.o(i.SysTick_CLKSourceConfig)
    i.SysTick_Handler                        0x08000b90   Section        0  stm32f10x_it.o(i.SysTick_Handler)
    i.SystemInit                             0x08000b94   Section        0  system_stm32f10x.o(i.SystemInit)
    i.TIM1Nvic_Config_Init                   0x08000bf4   Section        0  timer1.o(i.TIM1Nvic_Config_Init)
    i.TIM1_Config_Init                       0x08000c14   Section        0  timer1.o(i.TIM1_Config_Init)
    i.TIM1_UP_IRQHandler                     0x08000c6c   Section        0  timer1.o(i.TIM1_UP_IRQHandler)
    i.TIM2_GPIO_PWM_Init                     0x08000d60   Section        0  gpio_motor.o(i.TIM2_GPIO_PWM_Init)
    i.TIM2_PWM_Config_Init                   0x08000d8c   Section        0  pwm.o(i.TIM2_PWM_Config_Init)
    i.TIM3_GPIO_PWM_Init                     0x08000e00   Section        0  gpio_motor.o(i.TIM3_GPIO_PWM_Init)
    i.TIM3_PWM_Config_Init                   0x08000e2c   Section        0  pwm.o(i.TIM3_PWM_Config_Init)
    i.TIM4_GPIO_PWM_Init                     0x08000ea0   Section        0  gpio_motor.o(i.TIM4_GPIO_PWM_Init)
    i.TIM4_PWM_Config_Init                   0x08000ecc   Section        0  pwm.o(i.TIM4_PWM_Config_Init)
    i.TIM_ClearFlag                          0x08000f40   Section        0  stm32f10x_tim.o(i.TIM_ClearFlag)
    i.TIM_ClearITPendingBit                  0x08000f46   Section        0  stm32f10x_tim.o(i.TIM_ClearITPendingBit)
    i.TIM_Cmd                                0x08000f4c   Section        0  stm32f10x_tim.o(i.TIM_Cmd)
    i.TIM_GetITStatus                        0x08000f64   Section        0  stm32f10x_tim.o(i.TIM_GetITStatus)
    i.TIM_ITConfig                           0x08000f86   Section        0  stm32f10x_tim.o(i.TIM_ITConfig)
    i.TIM_OC2Init                            0x08000f98   Section        0  stm32f10x_tim.o(i.TIM_OC2Init)
    i.TIM_OC2PreloadConfig                   0x0800103c   Section        0  stm32f10x_tim.o(i.TIM_OC2PreloadConfig)
    i.TIM_OCENSet                            0x08001056   Section        0  motor_ctrl.o(i.TIM_OCENSet)
    i.TIM_TimeBaseInit                       0x08001078   Section        0  stm32f10x_tim.o(i.TIM_TimeBaseInit)
    i.USART1_IRQHandler                      0x0800111c   Section        0  usart.o(i.USART1_IRQHandler)
    i.USART_GetITStatus                      0x080011a4   Section        0  stm32f10x_usart.o(i.USART_GetITStatus)
    i.USART_ReceiveData                      0x080011f8   Section        0  stm32f10x_usart.o(i.USART_ReceiveData)
    i.UsageFault_Handler                     0x08001202   Section        0  stm32f10x_it.o(i.UsageFault_Handler)
    i._sys_exit                              0x08001206   Section        0  usart.o(i._sys_exit)
    i.delay_init                             0x0800120c   Section        0  delay_1.o(i.delay_init)
    i.delay_ms                               0x08001250   Section        0  delay_1.o(i.delay_ms)
    i.delay_s                                0x0800129c   Section        0  delay_1.o(i.delay_s)
    i.main                                   0x080012b4   Section        0  main.o(i.main)
    x$fpl$fcmpinf                            0x08001344   Section       24  fcmpi.o(x$fpl$fcmpinf)
    x$fpl$feqf                               0x0800135c   Section      104  feqf.o(x$fpl$feqf)
    x$fpl$ffltu                              0x080013c4   Section       38  fflt_clz.o(x$fpl$ffltu)
    x$fpl$fleqf                              0x080013ec   Section      104  fleqf.o(x$fpl$fleqf)
    x$fpl$fmul                               0x08001454   Section      258  fmul.o(x$fpl$fmul)
    x$fpl$fnaninf                            0x08001556   Section      140  fnaninf.o(x$fpl$fnaninf)
    x$fpl$fretinf                            0x080015e2   Section       10  fretinf.o(x$fpl$fretinf)
    x$fpl$frleqf                             0x080015ec   Section       98  frleqf.o(x$fpl$frleqf)
    .constdata                               0x0800164e   Section     1730  motor_ctrl.o(.constdata)
    x$fpl$usenofp                            0x0800164e   Section        0  usenofp.o(x$fpl$usenofp)
    .data                                    0x20000000   Section       72  main.o(.data)
    i                                        0x20000044   Data           4  main.o(.data)
    .data                                    0x20000048   Section       20  system_stm32f10x.o(.data)
    .data                                    0x2000005c   Section        4  delay_1.o(.data)
    fac_us                                   0x2000005c   Data           1  delay_1.o(.data)
    fac_ms                                   0x2000005e   Data           2  delay_1.o(.data)
    .data                                    0x20000060   Section        6  usart.o(.data)
    .bss                                     0x20000068   Section       66  main.o(.bss)
    .bss                                     0x200000aa   Section      200  usart.o(.bss)
    .bss                                     0x20000174   Section       96  libspace.o(.bss)
    HEAP                                     0x200001d8   Section      512  startup_stm32f10x_md.o(HEAP)
    Heap_Mem                                 0x200001d8   Data         512  startup_stm32f10x_md.o(HEAP)
    STACK                                    0x200003d8   Section     1024  startup_stm32f10x_md.o(STACK)
    Stack_Mem                                0x200003d8   Data        1024  startup_stm32f10x_md.o(STACK)
    __initial_sp                             0x200007d8   Data           0  startup_stm32f10x_md.o(STACK)

    Global Symbols

    Symbol Name                              Value     Ov Type        Size  Object(Section)

    BuildAttributes$$THM_ISAv4$P$D$K$B$S$PE$A:L22UL41UL21$X:L11$S22US41US21$IEEE1$IW$USESV6$~STKCKD$USESV7$~SHL$OSPACE$ROPI$EBA8$UX$STANDARDLIB$REQ8$PRES8$EABIv2 0x00000000   Number         0  anon$$obj.o ABSOLUTE
    __ARM_use_no_argv                        0x00000000   Number         0  main.o ABSOLUTE
    __ARM_exceptions_init                     - Undefined Weak Reference
    __alloca_initialize                       - Undefined Weak Reference
    __arm_preinit_                            - Undefined Weak Reference
    __cpp_initialize__aeabi_                  - Undefined Weak Reference
    __cxa_finalize                            - Undefined Weak Reference
    __rt_locale                               - Undefined Weak Reference
    __sigvec_lookup                           - Undefined Weak Reference
    _atexit_init                              - Undefined Weak Reference
    _call_atexit_fns                          - Undefined Weak Reference
    _clock_init                               - Undefined Weak Reference
    _fp_trap_init                             - Undefined Weak Reference
    _fp_trap_shutdown                         - Undefined Weak Reference
    _get_lc_collate                           - Undefined Weak Reference
    _get_lc_ctype                             - Undefined Weak Reference
    _get_lc_monetary                          - Undefined Weak Reference
    _get_lc_numeric                           - Undefined Weak Reference
    _get_lc_time                              - Undefined Weak Reference
    _getenv_init                              - Undefined Weak Reference
    _handle_redirection                       - Undefined Weak Reference
    _init_alloc                               - Undefined Weak Reference
    _init_user_alloc                          - Undefined Weak Reference
    _initio                                   - Undefined Weak Reference
    _rand_init                                - Undefined Weak Reference
    _signal_finish                            - Undefined Weak Reference
    _signal_init                              - Undefined Weak Reference
    _terminate_alloc                          - Undefined Weak Reference
    _terminate_user_alloc                     - Undefined Weak Reference
    _terminateio                              - Undefined Weak Reference
    __Vectors_Size                           0x000000ec   Number         0  startup_stm32f10x_md.o ABSOLUTE
    __Vectors                                0x08000000   Data           4  startup_stm32f10x_md.o(RESET)
    __Vectors_End                            0x080000ec   Data           0  startup_stm32f10x_md.o(RESET)
    __main                                   0x080000ed   Thumb Code     8  __main.o(!!!main)
    __scatterload                            0x080000f5   Thumb Code     0  __scatter.o(!!!scatter)
    __scatterload_rt2                        0x080000f5   Thumb Code    44  __scatter.o(!!!scatter)
    __scatterload_rt2_thumb_only             0x080000f5   Thumb Code     0  __scatter.o(!!!scatter)
    __scatterload_null                       0x08000103   Thumb Code     0  __scatter.o(!!!scatter)
    __scatterload_copy                       0x08000129   Thumb Code    26  __scatter_copy.o(!!handler_copy)
    __scatterload_zeroinit                   0x08000145   Thumb Code    28  __scatter_zi.o(!!handler_zi)
    __rt_lib_init                            0x08000161   Thumb Code     0  libinit.o(.ARM.Collect$$libinit$$00000000)
    __rt_lib_init_alloca_1                   0x08000163   Thumb Code     0  libinit2.o(.ARM.Collect$$libinit$$0000002E)
    __rt_lib_init_argv_1                     0x08000163   Thumb Code     0  libinit2.o(.ARM.Collect$$libinit$$0000002C)
    __rt_lib_init_atexit_1                   0x08000163   Thumb Code     0  libinit2.o(.ARM.Collect$$libinit$$0000001B)
    __rt_lib_init_clock_1                    0x08000163   Thumb Code     0  libinit2.o(.ARM.Collect$$libinit$$00000021)
    __rt_lib_init_cpp_1                      0x08000163   Thumb Code     0  libinit2.o(.ARM.Collect$$libinit$$00000032)
    __rt_lib_init_exceptions_1               0x08000163   Thumb Code     0  libinit2.o(.ARM.Collect$$libinit$$00000030)
    __rt_lib_init_fp_1                       0x08000163   Thumb Code     0  libinit2.o(.ARM.Collect$$libinit$$00000002)
    __rt_lib_init_fp_trap_1                  0x08000163   Thumb Code     0  libinit2.o(.ARM.Collect$$libinit$$0000001F)
    __rt_lib_init_getenv_1                   0x08000163   Thumb Code     0  libinit2.o(.ARM.Collect$$libinit$$00000023)
    __rt_lib_init_heap_1                     0x08000163   Thumb Code     0  libinit2.o(.ARM.Collect$$libinit$$0000000A)
    __rt_lib_init_lc_collate_1               0x08000163   Thumb Code     0  libinit2.o(.ARM.Collect$$libinit$$00000011)
    __rt_lib_init_lc_ctype_1                 0x08000163   Thumb Code     0  libinit2.o(.ARM.Collect$$libinit$$00000013)
    __rt_lib_init_lc_monetary_1              0x08000163   Thumb Code     0  libinit2.o(.ARM.Collect$$libinit$$00000015)
    __rt_lib_init_lc_numeric_1               0x08000163   Thumb Code     0  libinit2.o(.ARM.Collect$$libinit$$00000017)
    __rt_lib_init_lc_time_1                  0x08000163   Thumb Code     0  libinit2.o(.ARM.Collect$$libinit$$00000019)
    __rt_lib_init_preinit_1                  0x08000163   Thumb Code     0  libinit2.o(.ARM.Collect$$libinit$$00000004)
    __rt_lib_init_rand_1                     0x08000163   Thumb Code     0  libinit2.o(.ARM.Collect$$libinit$$0000000E)
    __rt_lib_init_return                     0x08000163   Thumb Code     0  libinit2.o(.ARM.Collect$$libinit$$00000033)
    __rt_lib_init_signal_1                   0x08000163   Thumb Code     0  libinit2.o(.ARM.Collect$$libinit$$0000001D)
    __rt_lib_init_stdio_1                    0x08000163   Thumb Code     0  libinit2.o(.ARM.Collect$$libinit$$00000025)
    __rt_lib_init_user_alloc_1               0x08000163   Thumb Code     0  libinit2.o(.ARM.Collect$$libinit$$0000000C)
    __rt_lib_shutdown                        0x08000165   Thumb Code     0  libshutdown.o(.ARM.Collect$$libshutdown$$00000000)
    __rt_lib_shutdown_cpp_1                  0x08000167   Thumb Code     0  libshutdown2.o(.ARM.Collect$$libshutdown$$00000002)
    __rt_lib_shutdown_fp_trap_1              0x08000167   Thumb Code     0  libshutdown2.o(.ARM.Collect$$libshutdown$$00000007)
    __rt_lib_shutdown_heap_1                 0x08000167   Thumb Code     0  libshutdown2.o(.ARM.Collect$$libshutdown$$0000000F)
    __rt_lib_shutdown_return                 0x08000167   Thumb Code     0  libshutdown2.o(.ARM.Collect$$libshutdown$$00000010)
    __rt_lib_shutdown_signal_1               0x08000167   Thumb Code     0  libshutdown2.o(.ARM.Collect$$libshutdown$$0000000A)
    __rt_lib_shutdown_stdio_1                0x08000167   Thumb Code     0  libshutdown2.o(.ARM.Collect$$libshutdown$$00000004)
    __rt_lib_shutdown_user_alloc_1           0x08000167   Thumb Code     0  libshutdown2.o(.ARM.Collect$$libshutdown$$0000000C)
    __rt_entry                               0x08000169   Thumb Code     0  __rtentry.o(.ARM.Collect$$rtentry$$00000000)
    __rt_entry_presh_1                       0x08000169   Thumb Code     0  __rtentry2.o(.ARM.Collect$$rtentry$$00000002)
    __rt_entry_sh                            0x08000169   Thumb Code     0  __rtentry4.o(.ARM.Collect$$rtentry$$00000004)
    __rt_entry_li                            0x0800016f   Thumb Code     0  __rtentry2.o(.ARM.Collect$$rtentry$$0000000A)
    __rt_entry_postsh_1                      0x0800016f   Thumb Code     0  __rtentry2.o(.ARM.Collect$$rtentry$$00000009)
    __rt_entry_main                          0x08000173   Thumb Code     0  __rtentry2.o(.ARM.Collect$$rtentry$$0000000D)
    __rt_entry_postli_1                      0x08000173   Thumb Code     0  __rtentry2.o(.ARM.Collect$$rtentry$$0000000C)
    __rt_exit                                0x0800017b   Thumb Code     0  rtexit.o(.ARM.Collect$$rtexit$$00000000)
    __rt_exit_ls                             0x0800017d   Thumb Code     0  rtexit2.o(.ARM.Collect$$rtexit$$00000003)
    __rt_exit_prels_1                        0x0800017d   Thumb Code     0  rtexit2.o(.ARM.Collect$$rtexit$$00000002)
    __rt_exit_exit                           0x08000181   Thumb Code     0  rtexit2.o(.ARM.Collect$$rtexit$$00000004)
    Reset_Handler                            0x08000189   Thumb Code     8  startup_stm32f10x_md.o(.text)
    ADC1_2_IRQHandler                        0x080001a3   Thumb Code     0  startup_stm32f10x_md.o(.text)
    CAN1_RX1_IRQHandler                      0x080001a3   Thumb Code     0  startup_stm32f10x_md.o(.text)
    CAN1_SCE_IRQHandler                      0x080001a3   Thumb Code     0  startup_stm32f10x_md.o(.text)
    DMA1_Channel1_IRQHandler                 0x080001a3   Thumb Code     0  startup_stm32f10x_md.o(.text)
    DMA1_Channel2_IRQHandler                 0x080001a3   Thumb Code     0  startup_stm32f10x_md.o(.text)
    DMA1_Channel3_IRQHandler                 0x080001a3   Thumb Code     0  startup_stm32f10x_md.o(.text)
    DMA1_Channel4_IRQHandler                 0x080001a3   Thumb Code     0  startup_stm32f10x_md.o(.text)
    DMA1_Channel5_IRQHandler                 0x080001a3   Thumb Code     0  startup_stm32f10x_md.o(.text)
    DMA1_Channel6_IRQHandler                 0x080001a3   Thumb Code     0  startup_stm32f10x_md.o(.text)
    DMA1_Channel7_IRQHandler                 0x080001a3   Thumb Code     0  startup_stm32f10x_md.o(.text)
    EXTI0_IRQHandler                         0x080001a3   Thumb Code     0  startup_stm32f10x_md.o(.text)
    EXTI15_10_IRQHandler                     0x080001a3   Thumb Code     0  startup_stm32f10x_md.o(.text)
    EXTI1_IRQHandler                         0x080001a3   Thumb Code     0  startup_stm32f10x_md.o(.text)
    EXTI2_IRQHandler                         0x080001a3   Thumb Code     0  startup_stm32f10x_md.o(.text)
    EXTI3_IRQHandler                         0x080001a3   Thumb Code     0  startup_stm32f10x_md.o(.text)
    EXTI4_IRQHandler                         0x080001a3   Thumb Code     0  startup_stm32f10x_md.o(.text)
    EXTI9_5_IRQHandler                       0x080001a3   Thumb Code     0  startup_stm32f10x_md.o(.text)
    FLASH_IRQHandler                         0x080001a3   Thumb Code     0  startup_stm32f10x_md.o(.text)
    I2C1_ER_IRQHandler                       0x080001a3   Thumb Code     0  startup_stm32f10x_md.o(.text)
    I2C1_EV_IRQHandler                       0x080001a3   Thumb Code     0  startup_stm32f10x_md.o(.text)
    I2C2_ER_IRQHandler                       0x080001a3   Thumb Code     0  startup_stm32f10x_md.o(.text)
    I2C2_EV_IRQHandler                       0x080001a3   Thumb Code     0  startup_stm32f10x_md.o(.text)
    PVD_IRQHandler                           0x080001a3   Thumb Code     0  startup_stm32f10x_md.o(.text)
    RCC_IRQHandler                           0x080001a3   Thumb Code     0  startup_stm32f10x_md.o(.text)
    RTCAlarm_IRQHandler                      0x080001a3   Thumb Code     0  startup_stm32f10x_md.o(.text)
    RTC_IRQHandler                           0x080001a3   Thumb Code     0  startup_stm32f10x_md.o(.text)
    SPI1_IRQHandler                          0x080001a3   Thumb Code     0  startup_stm32f10x_md.o(.text)
    SPI2_IRQHandler                          0x080001a3   Thumb Code     0  startup_stm32f10x_md.o(.text)
    TAMPER_IRQHandler                        0x080001a3   Thumb Code     0  startup_stm32f10x_md.o(.text)
    TIM1_BRK_IRQHandler                      0x080001a3   Thumb Code     0  startup_stm32f10x_md.o(.text)
    TIM1_CC_IRQHandler                       0x080001a3   Thumb Code     0  startup_stm32f10x_md.o(.text)
    TIM1_TRG_COM_IRQHandler                  0x080001a3   Thumb Code     0  startup_stm32f10x_md.o(.text)
    TIM2_IRQHandler                          0x080001a3   Thumb Code     0  startup_stm32f10x_md.o(.text)
    TIM3_IRQHandler                          0x080001a3   Thumb Code     0  startup_stm32f10x_md.o(.text)
    TIM4_IRQHandler                          0x080001a3   Thumb Code     0  startup_stm32f10x_md.o(.text)
    USART2_IRQHandler                        0x080001a3   Thumb Code     0  startup_stm32f10x_md.o(.text)
    USART3_IRQHandler                        0x080001a3   Thumb Code     0  startup_stm32f10x_md.o(.text)
    USBWakeUp_IRQHandler                     0x080001a3   Thumb Code     0  startup_stm32f10x_md.o(.text)
    USB_HP_CAN1_TX_IRQHandler                0x080001a3   Thumb Code     0  startup_stm32f10x_md.o(.text)
    USB_LP_CAN1_RX0_IRQHandler               0x080001a3   Thumb Code     0  startup_stm32f10x_md.o(.text)
    WWDG_IRQHandler                          0x080001a3   Thumb Code     0  startup_stm32f10x_md.o(.text)
    __user_initial_stackheap                 0x080001a5   Thumb Code     0  startup_stm32f10x_md.o(.text)
    __use_no_semihosting                     0x080001c9   Thumb Code     2  use_no_semi_2.o(.text)
    __use_two_region_memory                  0x080001cb   Thumb Code     2  heapauxi.o(.text)
    __rt_heap_escrow$2region                 0x080001cd   Thumb Code     2  heapauxi.o(.text)
    __rt_heap_expand$2region                 0x080001cf   Thumb Code     2  heapauxi.o(.text)
    __I$use$semihosting                      0x080001d1   Thumb Code     0  use_no_semi.o(.text)
    __use_no_semihosting_swi                 0x080001d1   Thumb Code     2  use_no_semi.o(.text)
    __user_setup_stackheap                   0x080001d3   Thumb Code    74  sys_stackheap_outer.o(.text)
    exit                                     0x0800021d   Thumb Code    18  exit.o(.text)
    __user_libspace                          0x08000231   Thumb Code     8  libspace.o(.text)
    __user_perproc_libspace                  0x08000231   Thumb Code     0  libspace.o(.text)
    __user_perthread_libspace                0x08000231   Thumb Code     0  libspace.o(.text)
    BusFault_Handler                         0x08000239   Thumb Code     4  stm32f10x_it.o(i.BusFault_Handler)
    DebugMon_Handler                         0x0800023d   Thumb Code     2  stm32f10x_it.o(i.DebugMon_Handler)
    GPIO_Init                                0x0800023f   Thumb Code   278  stm32f10x_gpio.o(i.GPIO_Init)
    GPIO_IronHand_Init                       0x08000355   Thumb Code    46  gpio_motor.o(i.GPIO_IronHand_Init)
    GPIO_Key_Init                            0x08000389   Thumb Code    34  key8.o(i.GPIO_Key_Init)
    GPIO_Motor_Init                          0x080003b1   Thumb Code    90  gpio_motor.o(i.GPIO_Motor_Init)
    GPIO_ReadInputDataBit                    0x08000411   Thumb Code    18  stm32f10x_gpio.o(i.GPIO_ReadInputDataBit)
    GPIO_ResetBits                           0x08000423   Thumb Code     4  stm32f10x_gpio.o(i.GPIO_ResetBits)
    GPIO_SetBits                             0x08000427   Thumb Code     4  stm32f10x_gpio.o(i.GPIO_SetBits)
    Get_Motor_RunningState                   0x0800042b   Thumb Code    26  motor_ctrl.o(i.Get_Motor_RunningState)
    HardFault_Handler                        0x08000445   Thumb Code     4  stm32f10x_it.o(i.HardFault_Handler)
    Init_Motor_Struct                        0x08000449   Thumb Code   104  motor.o(i.Init_Motor_Struct)
    Key8_scan                                0x080004c5   Thumb Code   356  key8.o(i.Key8_scan)
    Main_Init                                0x0800062d   Thumb Code   154  main.o(i.Main_Init)
    MemManage_Handler                        0x080006dd   Thumb Code     4  stm32f10x_it.o(i.MemManage_Handler)
    NMI_Handler                              0x080006e1   Thumb Code     2  stm32f10x_it.o(i.NMI_Handler)
    NVIC_Configuration                       0x080006e3   Thumb Code    12  sys.o(i.NVIC_Configuration)
    NVIC_Init                                0x080006f1   Thumb Code   100  misc.o(i.NVIC_Init)
    NVIC_PriorityGroupConfig                 0x08000761   Thumb Code    10  misc.o(i.NVIC_PriorityGroupConfig)
    PendSV_Handler                           0x08000775   Thumb Code     2  stm32f10x_it.o(i.PendSV_Handler)
    RCC_APB1PeriphClockCmd                   0x08000779   Thumb Code    26  stm32f10x_rcc.o(i.RCC_APB1PeriphClockCmd)
    RCC_APB2PeriphClockCmd                   0x08000799   Thumb Code    26  stm32f10x_rcc.o(i.RCC_APB2PeriphClockCmd)
    SVC_Handler                              0x080007b9   Thumb Code     2  stm32f10x_it.o(i.SVC_Handler)
    Set_Motor_Dir                            0x080008a5   Thumb Code    94  motor_ctrl.o(i.Set_Motor_Dir)
    Set_Motor_EN                             0x08000911   Thumb Code   112  motor_ctrl.o(i.Set_Motor_EN)
    Set_Motor_Speed                          0x0800098d   Thumb Code     6  motor_ctrl.o(i.Set_Motor_Speed)
    Start_Motor_withS                        0x08000995   Thumb Code   104  motor_ctrl.o(i.Start_Motor_withS)
    Step                                     0x08000a15   Thumb Code   180  main.o(i.Step)
    Stop_Motor_withS                         0x08000ae5   Thumb Code   102  motor_ctrl.o(i.Stop_Motor_withS)
    SysTick_CLKSourceConfig                  0x08000b69   Thumb Code    40  misc.o(i.SysTick_CLKSourceConfig)
    SysTick_Handler                          0x08000b91   Thumb Code     2  stm32f10x_it.o(i.SysTick_Handler)
    SystemInit                               0x08000b95   Thumb Code    78  system_stm32f10x.o(i.SystemInit)
    TIM1Nvic_Config_Init                     0x08000bf5   Thumb Code    32  timer1.o(i.TIM1Nvic_Config_Init)
    TIM1_Config_Init                         0x08000c15   Thumb Code    84  timer1.o(i.TIM1_Config_Init)
    TIM1_UP_IRQHandler                       0x08000c6d   Thumb Code   220  timer1.o(i.TIM1_UP_IRQHandler)
    TIM2_GPIO_PWM_Init                       0x08000d61   Thumb Code    38  gpio_motor.o(i.TIM2_GPIO_PWM_Init)
    TIM2_PWM_Config_Init                     0x08000d8d   Thumb Code   116  pwm.o(i.TIM2_PWM_Config_Init)
    TIM3_GPIO_PWM_Init                       0x08000e01   Thumb Code    38  gpio_motor.o(i.TIM3_GPIO_PWM_Init)
    TIM3_PWM_Config_Init                     0x08000e2d   Thumb Code   112  pwm.o(i.TIM3_PWM_Config_Init)
    TIM4_GPIO_PWM_Init                       0x08000ea1   Thumb Code    38  gpio_motor.o(i.TIM4_GPIO_PWM_Init)
    TIM4_PWM_Config_Init                     0x08000ecd   Thumb Code   112  pwm.o(i.TIM4_PWM_Config_Init)
    TIM_ClearFlag                            0x08000f41   Thumb Code     6  stm32f10x_tim.o(i.TIM_ClearFlag)
    TIM_ClearITPendingBit                    0x08000f47   Thumb Code     6  stm32f10x_tim.o(i.TIM_ClearITPendingBit)
    TIM_Cmd                                  0x08000f4d   Thumb Code    24  stm32f10x_tim.o(i.TIM_Cmd)
    TIM_GetITStatus                          0x08000f65   Thumb Code    34  stm32f10x_tim.o(i.TIM_GetITStatus)
    TIM_ITConfig                             0x08000f87   Thumb Code    18  stm32f10x_tim.o(i.TIM_ITConfig)
    TIM_OC2Init                              0x08000f99   Thumb Code   154  stm32f10x_tim.o(i.TIM_OC2Init)
    TIM_OC2PreloadConfig                     0x0800103d   Thumb Code    26  stm32f10x_tim.o(i.TIM_OC2PreloadConfig)
    TIM_OCENSet                              0x08001057   Thumb Code    32  motor_ctrl.o(i.TIM_OCENSet)
    TIM_TimeBaseInit                         0x08001079   Thumb Code   122  stm32f10x_tim.o(i.TIM_TimeBaseInit)
    USART1_IRQHandler                        0x0800111d   Thumb Code   122  usart.o(i.USART1_IRQHandler)
    USART_GetITStatus                        0x080011a5   Thumb Code    84  stm32f10x_usart.o(i.USART_GetITStatus)
    USART_ReceiveData                        0x080011f9   Thumb Code    10  stm32f10x_usart.o(i.USART_ReceiveData)
    UsageFault_Handler                       0x08001203   Thumb Code     4  stm32f10x_it.o(i.UsageFault_Handler)
    _sys_exit                                0x08001207   Thumb Code     6  usart.o(i._sys_exit)
    delay_init                               0x0800120d   Thumb Code    50  delay_1.o(i.delay_init)
    delay_ms                                 0x08001251   Thumb Code    72  delay_1.o(i.delay_ms)
    delay_s                                  0x0800129d   Thumb Code    24  delay_1.o(i.delay_s)
    main                                     0x080012b5   Thumb Code   120  main.o(i.main)
    __fpl_fcmp_Inf                           0x08001345   Thumb Code    24  fcmpi.o(x$fpl$fcmpinf)
    __aeabi_cfcmpeq                          0x0800135d   Thumb Code     0  feqf.o(x$fpl$feqf)
    _fcmpeq                                  0x0800135d   Thumb Code   104  feqf.o(x$fpl$feqf)
    __aeabi_ui2f                             0x080013c5   Thumb Code     0  fflt_clz.o(x$fpl$ffltu)
    _ffltu                                   0x080013c5   Thumb Code    38  fflt_clz.o(x$fpl$ffltu)
    __aeabi_cfcmple                          0x080013ed   Thumb Code     0  fleqf.o(x$fpl$fleqf)
    _fcmple                                  0x080013ed   Thumb Code   104  fleqf.o(x$fpl$fleqf)
    __fpl_fcmple_InfNaN                      0x0800143f   Thumb Code     0  fleqf.o(x$fpl$fleqf)
    __aeabi_fmul                             0x08001455   Thumb Code     0  fmul.o(x$fpl$fmul)
    _fmul                                    0x08001455   Thumb Code   258  fmul.o(x$fpl$fmul)
    __fpl_fnaninf                            0x08001557   Thumb Code   140  fnaninf.o(x$fpl$fnaninf)
    __fpl_fretinf                            0x080015e3   Thumb Code    10  fretinf.o(x$fpl$fretinf)
    __aeabi_cfrcmple                         0x080015ed   Thumb Code     0  frleqf.o(x$fpl$frleqf)
    _frcmple                                 0x080015ed   Thumb Code    98  frleqf.o(x$fpl$frleqf)
    Svalue_length                            0x0800164e   Data           2  motor_ctrl.o(.constdata)
    __I$use$fp                               0x0800164e   Number         0  usenofp.o(x$fpl$usenofp)
    AccSvalue                                0x08001650   Data         864  motor_ctrl.o(.constdata)
    DecSvalue                                0x080019b0   Data         864  motor_ctrl.o(.constdata)
    Region$$Table$$Base                      0x08001d10   Number         0  anon$$obj.o(Region$$Table)
    Region$$Table$$Limit                     0x08001d30   Number         0  anon$$obj.o(Region$$Table)
    count_time                               0x20000000   Data           2  main.o(.data)
    Key_Flag                                 0x20000002   Data           2  main.o(.data)
    buf                                      0x20000004   Data          64  main.o(.data)
    SystemCoreClock                          0x20000048   Data           4  system_stm32f10x.o(.data)
    AHBPrescTable                            0x2000004c   Data          16  system_stm32f10x.o(.data)
    __stdout                                 0x20000060   Data           4  usart.o(.data)
    USART_RX_STA                             0x20000064   Data           2  usart.o(.data)
    motor1                                   0x20000068   Data          22  main.o(.bss)
    motor2                                   0x2000007e   Data          22  main.o(.bss)
    motor3                                   0x20000094   Data          22  main.o(.bss)
    USART_RX_BUF                             0x200000aa   Data         200  usart.o(.bss)
    __libspace_start                         0x20000174   Data          96  libspace.o(.bss)
    __temporary_stack_top$libspace           0x200001d4   Data           0  libspace.o(.bss)



==============================================================================

Memory Map of the image

  Image Entry point : 0x080000ed

  Load Region LR_IROM1 (Base: 0x08000000, Size: 0x00001d98, Max: 0x00040000, ABSOLUTE)

    Execution Region ER_IROM1 (Base: 0x08000000, Size: 0x00001d30, Max: 0x00040000, ABSOLUTE)

    Base Addr    Size         Type   Attr      Idx    E Section Name        Object

    0x08000000   0x000000ec   Data   RO          521    RESET               startup_stm32f10x_md.o
    0x080000ec   0x00000008   Code   RO         3550  * !!!main             c_w.l(__main.o)
    0x080000f4   0x00000034   Code   RO         3726    !!!scatter          c_w.l(__scatter.o)
    0x08000128   0x0000001a   Code   RO         3728    !!handler_copy      c_w.l(__scatter_copy.o)
    0x08000142   0x00000002   PAD
    0x08000144   0x0000001c   Code   RO         3730    !!handler_zi        c_w.l(__scatter_zi.o)
    0x08000160   0x00000002   Code   RO         3600    .ARM.Collect$$libinit$$00000000  c_w.l(libinit.o)
    0x08000162   0x00000000   Code   RO         3607    .ARM.Collect$$libinit$$00000002  c_w.l(libinit2.o)
    0x08000162   0x00000000   Code   RO         3609    .ARM.Collect$$libinit$$00000004  c_w.l(libinit2.o)
    0x08000162   0x00000000   Code   RO         3612    .ARM.Collect$$libinit$$0000000A  c_w.l(libinit2.o)
    0x08000162   0x00000000   Code   RO         3614    .ARM.Collect$$libinit$$0000000C  c_w.l(libinit2.o)
    0x08000162   0x00000000   Code   RO         3616    .ARM.Collect$$libinit$$0000000E  c_w.l(libinit2.o)
    0x08000162   0x00000000   Code   RO         3619    .ARM.Collect$$libinit$$00000011  c_w.l(libinit2.o)
    0x08000162   0x00000000   Code   RO         3621    .ARM.Collect$$libinit$$00000013  c_w.l(libinit2.o)
    0x08000162   0x00000000   Code   RO         3623    .ARM.Collect$$libinit$$00000015  c_w.l(libinit2.o)
    0x08000162   0x00000000   Code   RO         3625    .ARM.Collect$$libinit$$00000017  c_w.l(libinit2.o)
    0x08000162   0x00000000   Code   RO         3627    .ARM.Collect$$libinit$$00000019  c_w.l(libinit2.o)
    0x08000162   0x00000000   Code   RO         3629    .ARM.Collect$$libinit$$0000001B  c_w.l(libinit2.o)
    0x08000162   0x00000000   Code   RO         3631    .ARM.Collect$$libinit$$0000001D  c_w.l(libinit2.o)
    0x08000162   0x00000000   Code   RO         3633    .ARM.Collect$$libinit$$0000001F  c_w.l(libinit2.o)
    0x08000162   0x00000000   Code   RO         3635    .ARM.Collect$$libinit$$00000021  c_w.l(libinit2.o)
    0x08000162   0x00000000   Code   RO         3637    .ARM.Collect$$libinit$$00000023  c_w.l(libinit2.o)
    0x08000162   0x00000000   Code   RO         3639    .ARM.Collect$$libinit$$00000025  c_w.l(libinit2.o)
    0x08000162   0x00000000   Code   RO         3643    .ARM.Collect$$libinit$$0000002C  c_w.l(libinit2.o)
    0x08000162   0x00000000   Code   RO         3645    .ARM.Collect$$libinit$$0000002E  c_w.l(libinit2.o)
    0x08000162   0x00000000   Code   RO         3647    .ARM.Collect$$libinit$$00000030  c_w.l(libinit2.o)
    0x08000162   0x00000000   Code   RO         3649    .ARM.Collect$$libinit$$00000032  c_w.l(libinit2.o)
    0x08000162   0x00000002   Code   RO         3650    .ARM.Collect$$libinit$$00000033  c_w.l(libinit2.o)
    0x08000164   0x00000002   Code   RO         3668    .ARM.Collect$$libshutdown$$00000000  c_w.l(libshutdown.o)
    0x08000166   0x00000000   Code   RO         3678    .ARM.Collect$$libshutdown$$00000002  c_w.l(libshutdown2.o)
    0x08000166   0x00000000   Code   RO         3680    .ARM.Collect$$libshutdown$$00000004  c_w.l(libshutdown2.o)
    0x08000166   0x00000000   Code   RO         3683    .ARM.Collect$$libshutdown$$00000007  c_w.l(libshutdown2.o)
    0x08000166   0x00000000   Code   RO         3686    .ARM.Collect$$libshutdown$$0000000A  c_w.l(libshutdown2.o)
    0x08000166   0x00000000   Code   RO         3688    .ARM.Collect$$libshutdown$$0000000C  c_w.l(libshutdown2.o)
    0x08000166   0x00000000   Code   RO         3691    .ARM.Collect$$libshutdown$$0000000F  c_w.l(libshutdown2.o)
    0x08000166   0x00000002   Code   RO         3692    .ARM.Collect$$libshutdown$$00000010  c_w.l(libshutdown2.o)
    0x08000168   0x00000000   Code   RO         3566    .ARM.Collect$$rtentry$$00000000  c_w.l(__rtentry.o)
    0x08000168   0x00000000   Code   RO         3577    .ARM.Collect$$rtentry$$00000002  c_w.l(__rtentry2.o)
    0x08000168   0x00000006   Code   RO         3589    .ARM.Collect$$rtentry$$00000004  c_w.l(__rtentry4.o)
    0x0800016e   0x00000000   Code   RO         3579    .ARM.Collect$$rtentry$$00000009  c_w.l(__rtentry2.o)
    0x0800016e   0x00000004   Code   RO         3580    .ARM.Collect$$rtentry$$0000000A  c_w.l(__rtentry2.o)
    0x08000172   0x00000000   Code   RO         3582    .ARM.Collect$$rtentry$$0000000C  c_w.l(__rtentry2.o)
    0x08000172   0x00000008   Code   RO         3583    .ARM.Collect$$rtentry$$0000000D  c_w.l(__rtentry2.o)
    0x0800017a   0x00000002   Code   RO         3604    .ARM.Collect$$rtexit$$00000000  c_w.l(rtexit.o)
    0x0800017c   0x00000000   Code   RO         3652    .ARM.Collect$$rtexit$$00000002  c_w.l(rtexit2.o)
    0x0800017c   0x00000004   Code   RO         3653    .ARM.Collect$$rtexit$$00000003  c_w.l(rtexit2.o)
    0x08000180   0x00000006   Code   RO         3654    .ARM.Collect$$rtexit$$00000004  c_w.l(rtexit2.o)
    0x08000186   0x00000002   PAD
    0x08000188   0x00000040   Code   RO          522    .text               startup_stm32f10x_md.o
    0x080001c8   0x00000002   Code   RO         3546    .text               c_w.l(use_no_semi_2.o)
    0x080001ca   0x00000006   Code   RO         3548    .text               c_w.l(heapauxi.o)
    0x080001d0   0x00000002   Code   RO         3564    .text               c_w.l(use_no_semi.o)
    0x080001d2   0x0000004a   Code   RO         3591    .text               c_w.l(sys_stackheap_outer.o)
    0x0800021c   0x00000012   Code   RO         3593    .text               c_w.l(exit.o)
    0x0800022e   0x00000002   PAD
    0x08000230   0x00000008   Code   RO         3601    .text               c_w.l(libspace.o)
    0x08000238   0x00000004   Code   RO          147    i.BusFault_Handler  stm32f10x_it.o
    0x0800023c   0x00000002   Code   RO          148    i.DebugMon_Handler  stm32f10x_it.o
    0x0800023e   0x00000116   Code   RO          622    i.GPIO_Init         stm32f10x_gpio.o
    0x08000354   0x00000034   Code   RO          214    i.GPIO_IronHand_Init  gpio_motor.o
    0x08000388   0x00000028   Code   RO          306    i.GPIO_Key_Init     key8.o
    0x080003b0   0x00000060   Code   RO          215    i.GPIO_Motor_Init   gpio_motor.o
    0x08000410   0x00000012   Code   RO          626    i.GPIO_ReadInputDataBit  stm32f10x_gpio.o
    0x08000422   0x00000004   Code   RO          629    i.GPIO_ResetBits    stm32f10x_gpio.o
    0x08000426   0x00000004   Code   RO          630    i.GPIO_SetBits      stm32f10x_gpio.o
    0x0800042a   0x0000001a   Code   RO          350    i.Get_Motor_RunningState  motor_ctrl.o
    0x08000444   0x00000004   Code   RO          149    i.HardFault_Handler  stm32f10x_it.o
    0x08000448   0x0000007c   Code   RO          411    i.Init_Motor_Struct  motor.o
    0x080004c4   0x00000168   Code   RO          307    i.Key8_scan         key8.o
    0x0800062c   0x000000b0   Code   RO            1    i.Main_Init         main.o
    0x080006dc   0x00000004   Code   RO          150    i.MemManage_Handler  stm32f10x_it.o
    0x080006e0   0x00000002   Code   RO          151    i.NMI_Handler       stm32f10x_it.o
    0x080006e2   0x0000000c   Code   RO          496    i.NVIC_Configuration  sys.o
    0x080006ee   0x00000002   PAD
    0x080006f0   0x00000070   Code   RO          526    i.NVIC_Init         misc.o
    0x08000760   0x00000014   Code   RO          527    i.NVIC_PriorityGroupConfig  misc.o
    0x08000774   0x00000002   Code   RO          152    i.PendSV_Handler    stm32f10x_it.o
    0x08000776   0x00000002   PAD
    0x08000778   0x00000020   Code   RO         2680    i.RCC_APB1PeriphClockCmd  stm32f10x_rcc.o
    0x08000798   0x00000020   Code   RO         2682    i.RCC_APB2PeriphClockCmd  stm32f10x_rcc.o
    0x080007b8   0x00000002   Code   RO          153    i.SVC_Handler       stm32f10x_it.o
    0x080007ba   0x00000008   Code   RO           97    i.SetSysClock       system_stm32f10x.o
    0x080007c2   0x00000002   PAD
    0x080007c4   0x000000e0   Code   RO           98    i.SetSysClockTo72   system_stm32f10x.o
    0x080008a4   0x0000006c   Code   RO          351    i.Set_Motor_Dir     motor_ctrl.o
    0x08000910   0x0000007c   Code   RO          352    i.Set_Motor_EN      motor_ctrl.o
    0x0800098c   0x00000006   Code   RO          353    i.Set_Motor_Speed   motor_ctrl.o
    0x08000992   0x00000002   PAD
    0x08000994   0x00000080   Code   RO          354    i.Start_Motor_withS  motor_ctrl.o
    0x08000a14   0x000000d0   Code   RO            2    i.Step              main.o
    0x08000ae4   0x00000084   Code   RO          355    i.Stop_Motor_withS  motor_ctrl.o
    0x08000b68   0x00000028   Code   RO          530    i.SysTick_CLKSourceConfig  misc.o
    0x08000b90   0x00000002   Code   RO          154    i.SysTick_Handler   stm32f10x_it.o
    0x08000b92   0x00000002   PAD
    0x08000b94   0x00000060   Code   RO          100    i.SystemInit        system_stm32f10x.o
    0x08000bf4   0x00000020   Code   RO          274    i.TIM1Nvic_Config_Init  timer1.o
    0x08000c14   0x00000058   Code   RO          275    i.TIM1_Config_Init  timer1.o
    0x08000c6c   0x000000f4   Code   RO          276    i.TIM1_UP_IRQHandler  timer1.o
    0x08000d60   0x0000002c   Code   RO          216    i.TIM2_GPIO_PWM_Init  gpio_motor.o
    0x08000d8c   0x00000074   Code   RO          250    i.TIM2_PWM_Config_Init  pwm.o
    0x08000e00   0x0000002c   Code   RO          217    i.TIM3_GPIO_PWM_Init  gpio_motor.o
    0x08000e2c   0x00000074   Code   RO          251    i.TIM3_PWM_Config_Init  pwm.o
    0x08000ea0   0x0000002c   Code   RO          218    i.TIM4_GPIO_PWM_Init  gpio_motor.o
    0x08000ecc   0x00000074   Code   RO          252    i.TIM4_PWM_Config_Init  pwm.o
    0x08000f40   0x00000006   Code   RO          740    i.TIM_ClearFlag     stm32f10x_tim.o
    0x08000f46   0x00000006   Code   RO          741    i.TIM_ClearITPendingBit  stm32f10x_tim.o
    0x08000f4c   0x00000018   Code   RO          746    i.TIM_Cmd           stm32f10x_tim.o
    0x08000f64   0x00000022   Code   RO          767    i.TIM_GetITStatus   stm32f10x_tim.o
    0x08000f86   0x00000012   Code   RO          771    i.TIM_ITConfig      stm32f10x_tim.o
    0x08000f98   0x000000a4   Code   RO          780    i.TIM_OC2Init       stm32f10x_tim.o
    0x0800103c   0x0000001a   Code   RO          783    i.TIM_OC2PreloadConfig  stm32f10x_tim.o
    0x08001056   0x00000020   Code   RO          356    i.TIM_OCENSet       motor_ctrl.o
    0x08001076   0x00000002   PAD
    0x08001078   0x000000a4   Code   RO          817    i.TIM_TimeBaseInit  stm32f10x_tim.o
    0x0800111c   0x00000088   Code   RO          455    i.USART1_IRQHandler  usart.o
    0x080011a4   0x00000054   Code   RO         3315    i.USART_GetITStatus  stm32f10x_usart.o
    0x080011f8   0x0000000a   Code   RO         3325    i.USART_ReceiveData  stm32f10x_usart.o
    0x08001202   0x00000004   Code   RO          155    i.UsageFault_Handler  stm32f10x_it.o
    0x08001206   0x00000006   Code   RO          456    i._sys_exit         usart.o
    0x0800120c   0x00000044   Code   RO          423    i.delay_init        delay_1.o
    0x08001250   0x0000004c   Code   RO          424    i.delay_ms          delay_1.o
    0x0800129c   0x00000018   Code   RO          425    i.delay_s           delay_1.o
    0x080012b4   0x00000090   Code   RO            3    i.main              main.o
    0x08001344   0x00000018   Code   RO         3567    x$fpl$fcmpinf       fz_ws.l(fcmpi.o)
    0x0800135c   0x00000068   Code   RO         3552    x$fpl$feqf          fz_ws.l(feqf.o)
    0x080013c4   0x00000026   Code   RO         3554    x$fpl$ffltu         fz_ws.l(fflt_clz.o)
    0x080013ea   0x00000002   PAD
    0x080013ec   0x00000068   Code   RO         3569    x$fpl$fleqf         fz_ws.l(fleqf.o)
    0x08001454   0x00000102   Code   RO         3560    x$fpl$fmul          fz_ws.l(fmul.o)
    0x08001556   0x0000008c   Code   RO         3571    x$fpl$fnaninf       fz_ws.l(fnaninf.o)
    0x080015e2   0x0000000a   Code   RO         3573    x$fpl$fretinf       fz_ws.l(fretinf.o)
    0x080015ec   0x00000062   Code   RO         3562    x$fpl$frleqf        fz_ws.l(frleqf.o)
    0x0800164e   0x00000000   Code   RO         3575    x$fpl$usenofp       fz_ws.l(usenofp.o)
    0x0800164e   0x000006c2   Data   RO          357    .constdata          motor_ctrl.o
    0x08001d10   0x00000020   Data   RO         3724    Region$$Table       anon$$obj.o


    Execution Region RW_IRAM1 (Base: 0x20000000, Size: 0x000007d8, Max: 0x0000c000, ABSOLUTE)

    Base Addr    Size         Type   Attr      Idx    E Section Name        Object

    0x20000000   0x00000048   Data   RW            5    .data               main.o
    0x20000048   0x00000014   Data   RW          101    .data               system_stm32f10x.o
    0x2000005c   0x00000004   Data   RW          427    .data               delay_1.o
    0x20000060   0x00000006   Data   RW          460    .data               usart.o
    0x20000066   0x00000002   PAD
    0x20000068   0x00000042   Zero   RW            4    .bss                main.o
    0x200000aa   0x000000c8   Zero   RW          459    .bss                usart.o
    0x20000172   0x00000002   PAD
    0x20000174   0x00000060   Zero   RW         3602    .bss                c_w.l(libspace.o)
    0x200001d4   0x00000004   PAD
    0x200001d8   0x00000200   Zero   RW          520    HEAP                startup_stm32f10x_md.o
    0x200003d8   0x00000400   Zero   RW          519    STACK               startup_stm32f10x_md.o


==============================================================================

Image component sizes


      Code (inc. data)   RO Data    RW Data    ZI Data      Debug   Object Name

         0          0          0          0          0         32   core_cm3.o
       168         22          0          4          0       1858   delay_1.o
       280         30          0          0          0       2866   gpio_motor.o
       400         10          0          0          0       1264   key8.o
       528         74          0         72         66     247537   main.o
       172         22          0          0          0       2189   misc.o
       124         20          0          0          0       1024   motor.o
       556         80       1730          0          0       5443   motor_ctrl.o
       348          8          0          0          0       2205   pwm.o
        64         26        236          0       1536        824   startup_stm32f10x_md.o
       304          0          0          0          0       3824   stm32f10x_gpio.o
        26          0          0          0          0       4002   stm32f10x_it.o
        64         12          0          0          0       1210   stm32f10x_rcc.o
       442         52          0          0          0       5683   stm32f10x_tim.o
        94          0          0          0          0       2836   stm32f10x_usart.o
        12          0          0          0          0        489   sys.o
       328         28          0         20          0       2257   system_stm32f10x.o
       364         28          0          0          0       2610   timer1.o
       142         14          0          6        200       3044   usart.o

    ----------------------------------------------------------------------
      4428        426       1998        104       1804     291197   Object Totals
         0          0         32          0          0          0   (incl. Generated)
        12          0          0          2          2          0   (incl. Padding)

    ----------------------------------------------------------------------

      Code (inc. data)   RO Data    RW Data    ZI Data      Debug   Library Member Name

         8          0          0          0          0         68   __main.o
         0          0          0          0          0          0   __rtentry.o
        12          0          0          0          0          0   __rtentry2.o
         6          0          0          0          0          0   __rtentry4.o
        52          8          0          0          0          0   __scatter.o
        26          0          0          0          0          0   __scatter_copy.o
        28          0          0          0          0          0   __scatter_zi.o
        18          0          0          0          0         80   exit.o
         6          0          0          0          0        152   heapauxi.o
         2          0          0          0          0          0   libinit.o
         2          0          0          0          0          0   libinit2.o
         2          0          0          0          0          0   libshutdown.o
         2          0          0          0          0          0   libshutdown2.o
         8          4          0          0         96         68   libspace.o
         2          0          0          0          0          0   rtexit.o
        10          0          0          0          0          0   rtexit2.o
        74          0          0          0          0         80   sys_stackheap_outer.o
         2          0          0          0          0         68   use_no_semi.o
         2          0          0          0          0         68   use_no_semi_2.o
        24          0          0          0          0         68   fcmpi.o
       104          4          0          0          0         84   feqf.o
        38          0          0          0          0         68   fflt_clz.o
       104          4          0          0          0         84   fleqf.o
       258          4          0          0          0         84   fmul.o
       140          4          0          0          0         84   fnaninf.o
        10          0          0          0          0         68   fretinf.o
        98          0          0          0          0         68   frleqf.o
         0          0          0          0          0          0   usenofp.o

    ----------------------------------------------------------------------
      1046         28          0          0        100       1192   Library Totals
         8          0          0          0          4          0   (incl. Padding)

    ----------------------------------------------------------------------

      Code (inc. data)   RO Data    RW Data    ZI Data      Debug   Library Name

       262         12          0          0         96        584   c_w.l
       776         16          0          0          0        608   fz_ws.l

    ----------------------------------------------------------------------
      1046         28          0          0        100       1192   Library Totals

    ----------------------------------------------------------------------

==============================================================================


      Code (inc. data)   RO Data    RW Data    ZI Data      Debug   

      5474        454       1998        104       1904     288849   Grand Totals
      5474        454       1998        104       1904     288849   ELF Image Totals
      5474        454       1998        104          0          0   ROM Totals

==============================================================================

    Total RO  Size (Code + RO Data)                 7472 (   7.30kB)
    Total RW  Size (RW Data + ZI Data)              2008 (   1.96kB)
    Total ROM Size (Code + RO Data + RW Data)       7576 (   7.40kB)

==============================================================================

