Component: ARM Compiler 5.06 (build 20) Tool: armlink [4d35a3]

==============================================================================

Section Cross References

    main.o(i.Compute_Time_Of) refers to dflt_clz.o(x$fpl$dflt) for __aeabi_i2d
    main.o(i.Compute_Time_Of) refers to dmul.o(x$fpl$dmul) for __aeabi_dmul
    main.o(i.Compute_Time_Of) refers to ddiv.o(x$fpl$ddiv) for __aeabi_ddiv
    main.o(i.Compute_Time_Of) refers to d2f.o(x$fpl$d2f) for __aeabi_d2f
    main.o(i.Compute_Time_Of) refers to main.o(.bss) for motor1
    main.o(i.Main_Init) refers to delay.o(i.delay_init) for delay_init
    main.o(i.Main_Init) refers to sys.o(i.NVIC_Configuration) for NVIC_Configuration
    main.o(i.Main_Init) refers to gpio_motor.o(i.GPIO_Motor_Init) for GPIO_Motor_Init
    main.o(i.Main_Init) refers to key8.o(i.GPIO_Key_Init) for GPIO_Key_Init
    main.o(i.Main_Init) refers to gpio_motor.o(i.GPIO_IronHand_Init) for GPIO_IronHand_Init
    main.o(i.Main_Init) refers to usart_master.o(i.Init_USART1_Buffer) for Init_USART1_Buffer
    main.o(i.Main_Init) refers to motor.o(i.Init_Motor_Struct) for Init_Motor_Struct
    main.o(i.Main_Init) refers to motor_ctrl.o(i.Set_Motor_EN) for Set_Motor_EN
    main.o(i.Main_Init) refers to motor_ctrl.o(i.Set_Motor_Dir) for Set_Motor_Dir
    main.o(i.Main_Init) refers to pwm.o(i.TIM2_PWM_Config_Init) for TIM2_PWM_Config_Init
    main.o(i.Main_Init) refers to pwm.o(i.TIM3_PWM_Config_Init) for TIM3_PWM_Config_Init
    main.o(i.Main_Init) refers to pwm.o(i.TIM4_PWM_Config_Init) for TIM4_PWM_Config_Init
    main.o(i.Main_Init) refers to delay.o(i.delay_ms) for delay_ms
==============================================================================

Removing Unused input sections from the image.

    Removing system_stm32f10x.o(i.SystemCoreClockUpdate), (164 bytes).
    Removing key8.o(i.Key8_scan), (360 bytes).
    Removing motor_ctrl.o(i.Change_Motor_Dir), (48 bytes).
    Removing motor_ctrl.o(i.Get_Motor_RunningSpeed), (26 bytes).
    Removing core_cm3.o(.emb_text), (32 bytes).
    Removing misc.o(i.NVIC_SetVectorTable), (20 bytes).
    Removing misc.o(i.NVIC_SystemLPConfig), (32 bytes).
    Removing stm32f10x_exti.o(i.EXTI_ClearFlag), (12 bytes).
    Removing stm32f10x_exti.o(i.EXTI_ClearITPendingBit), (12 bytes).
    Removing stm32f10x_exti.o(i.EXTI_DeInit), (36 bytes).
    Removing stm32f10x_exti.o(i.EXTI_GenerateSWInterrupt), (16 bytes).
    Removing stm32f10x_exti.o(i.EXTI_GetFlagStatus), (24 bytes).
    Removing stm32f10x_exti.o(i.EXTI_GetITStatus), (40 bytes).
    Removing stm32f10x_exti.o(i.EXTI_Init), (148 bytes).
    Removing stm32f10x_exti.o(i.EXTI_StructInit), (16 bytes).
    Removing stm32f10x_gpio.o(i.GPIO_AFIODeInit), (20 bytes).
    Removing stm32f10x_gpio.o(i.GPIO_DeInit), (200 bytes).
    Removing stm32f10x_gpio.o(i.GPIO_ETH_MediaInterfaceConfig), (12 bytes).
==============================================================================

Image Symbol Table

    Local Symbols

    Symbol Name                              Value     Ov Type        Size  Object(Section)

    ../clib/angel/boardlib.s                 0x00000000   Number         0  boardshut.o ABSOLUTE
    ../clib/angel/boardlib.s                 0x00000000   Number         0  boardinit1.o ABSOLUTE
    ../clib/angel/boardlib.s                 0x00000000   Number         0  boardinit2.o ABSOLUTE
    ../clib/angel/boardlib.s                 0x00000000   Number         0  boardinit3.o ABSOLUTE
    ../clib/angel/handlers.s                 0x00000000   Number         0  __scatter_copy.o ABSOLUTE
    ../clib/angel/handlers.s                 0x00000000   Number         0  __scatter_zi.o ABSOLUTE
    ../clib/angel/kernel.s                   0x00000000   Number         0  __rtentry2.o ABSOLUTE
    ../clib/angel/kernel.s                   0x00000000   Number         0  rtexit2.o ABSOLUTE
    ../clib/angel/kernel.s                   0x00000000   Number         0  __rtentry.o ABSOLUTE
    ../clib/angel/kernel.s                   0x00000000   Number         0  __rtentry4.o ABSOLUTE
    ../clib/angel/kernel.s                   0x00000000   Number         0  rtexit.o ABSOLUTE
    ../clib/angel/rt.s                       0x00000000   Number         0  rt_raise.o ABSOLUTE
    ../clib/angel/scatter.s                  0x00000000   Number         0  __scatter.o ABSOLUTE
    ../clib/angel/startup.s                  0x00000000   Number         0  __main.o ABSOLUTE
    ../clib/angel/sys.s                      0x00000000   Number         0  use_no_semi.o ABSOLUTE
    ../clib/angel/sys.s                      0x00000000   Number         0  sys_stackheap_outer.o ABSOLUTE
    ../clib/angel/sys.s                      0x00000000   Number         0  libspace.o ABSOLUTE
    ../clib/angel/sys.s                      0x00000000   Number         0  indicate_semi.o ABSOLUTE
    ../clib/angel/sysapp.c                   0x00000000   Number         0  sys_command.o ABSOLUTE
    ../clib/angel/sysapp.c                   0x00000000   Number         0  sys_exit.o ABSOLUTE
    ../clib/angel/sysapp.c                   0x00000000   Number         0  sys_wrch.o ABSOLUTE
    ../clib/armsys.c                         0x00000000   Number         0  no_argv.o ABSOLUTE
    ../clib/armsys.c                         0x00000000   Number         0  _get_argv_nomalloc.o ABSOLUTE
    ../clib/armsys.c                         0x00000000   Number         0  argv_veneer.o ABSOLUTE
    ../clib/armsys.c                         0x00000000   Number         0  argv_veneer.o ABSOLUTE
    ../clib/heapalloc.c                      0x00000000   Number         0  hrguard.o ABSOLUTE
    ../clib/heapaux.c                        0x00000000   Number         0  heapauxi.o ABSOLUTE
    ../clib/libinit.s                        0x00000000   Number         0  libinit.o ABSOLUTE
    ../clib/libinit.s                        0x00000000   Number         0  libshutdown.o ABSOLUTE
    ../clib/libinit.s                        0x00000000   Number         0  libshutdown2.o ABSOLUTE
    ../clib/libinit.s                        0x00000000   Number         0  libinit2.o ABSOLUTE
    ../clib/signal.c                         0x00000000   Number         0  defsig_rtred_inner.o ABSOLUTE
    ../clib/signal.c                         0x00000000   Number         0  defsig_rtmem_inner.o ABSOLUTE
    ../clib/signal.c                         0x00000000   Number         0  defsig_rtmem_outer.o ABSOLUTE
    ../clib/signal.c                         0x00000000   Number         0  defsig_other.o ABSOLUTE
    ../clib/signal.c                         0x00000000   Number         0  defsig_segv_inner.o ABSOLUTE
    ../clib/signal.c                         0x00000000   Number         0  defsig_cppl_inner.o ABSOLUTE
    ../clib/signal.c                         0x00000000   Number         0  defsig_pvfn_inner.o ABSOLUTE
    ../clib/signal.c                         0x00000000   Number         0  defsig_stak_inner.o ABSOLUTE
    ../clib/signal.c                         0x00000000   Number         0  defsig_rtmem_formal.o ABSOLUTE
    ../clib/signal.c                         0x00000000   Number         0  defsig_fpe_inner.o ABSOLUTE
    ../clib/signal.c                         0x00000000   Number         0  defsig_abrt_inner.o ABSOLUTE
    ../clib/signal.c                         0x00000000   Number         0  defsig_exit.o ABSOLUTE
    ../clib/signal.c                         0x00000000   Number         0  defsig_general.o ABSOLUTE
    ../clib/signal.c                         0x00000000   Number         0  __raise.o ABSOLUTE
    ../clib/signal.s                         0x00000000   Number         0  defsig.o ABSOLUTE
    ../clib/stdlib.c                         0x00000000   Number         0  exit.o ABSOLUTE
    ../fplib/d2f.s                           0x00000000   Number         0  d2f.o ABSOLUTE
    ../fplib/ddiv.s                          0x00000000   Number         0  ddiv.o ABSOLUTE
    ../fplib/dflt.s                          0x00000000   Number         0  dflt_clz.o ABSOLUTE
    ../fplib/dmul.s                          0x00000000   Number         0  dmul.o ABSOLUTE
    ../fplib/dnaninf.s                       0x00000000   Number         0  dnaninf.o ABSOLUTE
    ../fplib/dretinf.s                       0x00000000   Number         0  dretinf.o ABSOLUTE
    ../fplib/fpinit.s                        0x00000000   Number         0  fpinit.o ABSOLUTE
    ../fplib/fretinf.s                       0x00000000   Number         0  fretinf.o ABSOLUTE
    ../fplib/usenofp.s                       0x00000000   Number         0  usenofp.o ABSOLUTE
    ..\CORE\core_cm3.c                       0x00000000   Number         0  core_cm3.o ABSOLUTE
    ..\CORE\startup_stm32f10x_md.s           0x00000000   Number         0  startup_stm32f10x_md.o ABSOLUTE
    ..\HARDWARE\GPIO_Motor\GPIO_Motor.c      0x00000000   Number         0  gpio_motor.o ABSOLUTE
    ..\HARDWARE\IronHand\IronHand.c          0x00000000   Number         0  ironhand.o ABSOLUTE
    ..\HARDWARE\KEY\key8.c                   0x00000000   Number         0  key8.o ABSOLUTE
    ..\HARDWARE\MOTOR_CTRL\motor.c           0x00000000   Number         0  motor.o ABSOLUTE
    ..\HARDWARE\MOTOR_CTRL\motor_ctrl.c      0x00000000   Number         0  motor_ctrl.o ABSOLUTE
    ..\HARDWARE\PWM\pwm.c                    0x00000000   Number         0  pwm.o ABSOLUTE
    ..\HARDWARE\TIMER\timer1.c               0x00000000   Number         0  timer1.o ABSOLUTE
    ..\HARDWARE\USART\usart_master.c         0x00000000   Number         0  usart_master.o ABSOLUTE
    ..\STM32F10x_FWLib\src\misc.c            0x00000000   Number         0  misc.o ABSOLUTE
    ..\STM32F10x_FWLib\src\stm32f10x_adc.c   0x00000000   Number         0  stm32f10x_adc.o ABSOLUTE
    ..\STM32F10x_FWLib\src\stm32f10x_bkp.c   0x00000000   Number         0  stm32f10x_bkp.o ABSOLUTE
    ..\STM32F10x_FWLib\src\stm32f10x_can.c   0x00000000   Number         0  stm32f10x_can.o ABSOLUTE
    ..\STM32F10x_FWLib\src\stm32f10x_cec.c   0x00000000   Number         0  stm32f10x_cec.o ABSOLUTE
    ..\STM32F10x_FWLib\src\stm32f10x_crc.c   0x00000000   Number         0  stm32f10x_crc.o ABSOLUTE
    ..\STM32F10x_FWLib\src\stm32f10x_dac.c   0x00000000   Number         0  stm32f10x_dac.o ABSOLUTE
    ..\STM32F10x_FWLib\src\stm32f10x_dbgmcu.c 0x00000000   Number         0  stm32f10x_dbgmcu.o ABSOLUTE
    ..\STM32F10x_FWLib\src\stm32f10x_dma.c   0x00000000   Number         0  stm32f10x_dma.o ABSOLUTE
    ..\STM32F10x_FWLib\src\stm32f10x_exti.c  0x00000000   Number         0  stm32f10x_exti.o ABSOLUTE
    ..\STM32F10x_FWLib\src\stm32f10x_flash.c 0x00000000   Number         0  stm32f10x_flash.o ABSOLUTE
    ..\STM32F10x_FWLib\src\stm32f10x_fsmc.c  0x00000000   Number         0  stm32f10x_fsmc.o ABSOLUTE
    ..\STM32F10x_FWLib\src\stm32f10x_gpio.c  0x00000000   Number         0  stm32f10x_gpio.o ABSOLUTE
    ..\STM32F10x_FWLib\src\stm32f10x_i2c.c   0x00000000   Number         0  stm32f10x_i2c.o ABSOLUTE
    ..\STM32F10x_FWLib\src\stm32f10x_iwdg.c  0x00000000   Number         0  stm32f10x_iwdg.o ABSOLUTE
    ..\STM32F10x_FWLib\src\stm32f10x_pwr.c   0x00000000   Number         0  stm32f10x_pwr.o ABSOLUTE
    ..\STM32F10x_FWLib\src\stm32f10x_rcc.c   0x00000000   Number         0  stm32f10x_rcc.o ABSOLUTE
    ..\STM32F10x_FWLib\src\stm32f10x_rtc.c   0x00000000   Number         0  stm32f10x_rtc.o ABSOLUTE
    ..\STM32F10x_FWLib\src\stm32f10x_sdio.c  0x00000000   Number         0  stm32f10x_sdio.o ABSOLUTE
    ..\STM32F10x_FWLib\src\stm32f10x_spi.c   0x00000000   Number         0  stm32f10x_spi.o ABSOLUTE
    ..\STM32F10x_FWLib\src\stm32f10x_tim.c   0x00000000   Number         0  stm32f10x_tim.o ABSOLUTE
    ..\STM32F10x_FWLib\src\stm32f10x_usart.c 0x00000000   Number         0  stm32f10x_usart.o ABSOLUTE
    ..\STM32F10x_FWLib\src\stm32f10x_wwdg.c  0x00000000   Number         0  stm32f10x_wwdg.o ABSOLUTE
    ..\SYSTEM\delay\delay.c                  0x00000000   Number         0  delay.o ABSOLUTE
    ..\SYSTEM\sys\sys.c                      0x00000000   Number         0  sys.o ABSOLUTE
    ..\UCOSII\CORE\os_core.c                 0x00000000   Number         0  os_core.o ABSOLUTE
    ..\UCOSII\CORE\os_flag.c                 0x00000000   Number         0  os_flag.o ABSOLUTE
    ..\UCOSII\CORE\os_mbox.c                 0x00000000   Number         0  os_mbox.o ABSOLUTE
    ..\UCOSII\CORE\os_mem.c                  0x00000000   Number         0  os_mem.o ABSOLUTE
    ..\UCOSII\CORE\os_mutex.c                0x00000000   Number         0  os_mutex.o ABSOLUTE
    ..\UCOSII\CORE\os_q.c                    0x00000000   Number         0  os_q.o ABSOLUTE
    ..\UCOSII\CORE\os_sem.c                  0x00000000   Number         0  os_sem.o ABSOLUTE
    ..\UCOSII\CORE\os_task.c                 0x00000000   Number         0  os_task.o ABSOLUTE
    ..\UCOSII\CORE\os_time.c                 0x00000000   Number         0  os_time.o ABSOLUTE
    ..\UCOSII\CORE\os_tmr.c                  0x00000000   Number         0  os_tmr.o ABSOLUTE
    ..\UCOSII\PORT\os_cpu_a.asm              0x00000000   Number         0  os_cpu_a.o ABSOLUTE
    ..\UCOSII\PORT\os_cpu_c.c                0x00000000   Number         0  os_cpu_c.o ABSOLUTE
    ..\\CORE\\core_cm3.c                     0x00000000   Number         0  core_cm3.o ABSOLUTE
    dc.s                                     0x00000000   Number         0  dc.o ABSOLUTE
    main.c                                   0x00000000   Number         0  main.o ABSOLUTE
    stm32f10x_it.c                           0x00000000   Number         0  stm32f10x_it.o ABSOLUTE
    system_stm32f10x.c                       0x00000000   Number         0  system_stm32f10x.o ABSOLUTE
    RESET                                    0x08000000   Section      236  startup_stm32f10x_md.o(RESET)
    !!!main                                  0x080000ec   Section        8  __main.o(!!!main)
    !!!scatter                               0x080000f4   Section       52  __scatter.o(!!!scatter)
    !!handler_copy                           0x08000128   Section       26  __scatter_copy.o(!!handler_copy)
    !!handler_zi                             0x08000144   Section       28  __scatter_zi.o(!!handler_zi)
    .ARM.Collect$$libinit$$00000000          0x08000160   Section        2  libinit.o(.ARM.Collect$$libinit$$00000000)
    .ARM.Collect$$libinit$$00000002          0x08000162   Section        0  libinit2.o(.ARM.Collect$$libinit$$00000002)
    .ARM.Collect$$libinit$$00000004          0x08000162   Section        0  libinit2.o(.ARM.Collect$$libinit$$00000004)
    .ARM.Collect$$libinit$$0000000A          0x08000162   Section        0  libinit2.o(.ARM.Collect$$libinit$$0000000A)
    .ARM.Collect$$libinit$$0000000C          0x08000162   Section        0  libinit2.o(.ARM.Collect$$libinit$$0000000C)
    .ARM.Collect$$libinit$$0000000E          0x08000162   Section        0  libinit2.o(.ARM.Collect$$libinit$$0000000E)
    .ARM.Collect$$libinit$$00000011          0x08000162   Section        0  libinit2.o(.ARM.Collect$$libinit$$00000011)
    .ARM.Collect$$libinit$$00000013          0x08000162   Section        0  libinit2.o(.ARM.Collect$$libinit$$00000013)
    .ARM.Collect$$libinit$$00000015          0x08000162   Section        0  libinit2.o(.ARM.Collect$$libinit$$00000015)
    .ARM.Collect$$libinit$$00000017          0x08000162   Section        0  libinit2.o(.ARM.Collect$$libinit$$00000017)
    .ARM.Collect$$libinit$$00000019          0x08000162   Section        0  libinit2.o(.ARM.Collect$$libinit$$00000019)
    .ARM.Collect$$libinit$$0000001B          0x08000162   Section        0  libinit2.o(.ARM.Collect$$libinit$$0000001B)
    .ARM.Collect$$libinit$$0000001D          0x08000162   Section        0  libinit2.o(.ARM.Collect$$libinit$$0000001D)
    .ARM.Collect$$libinit$$0000001F          0x08000162   Section        0  libinit2.o(.ARM.Collect$$libinit$$0000001F)
    .ARM.Collect$$libinit$$00000021          0x08000162   Section        0  libinit2.o(.ARM.Collect$$libinit$$00000021)
    .ARM.Collect$$libinit$$00000023          0x08000162   Section        0  libinit2.o(.ARM.Collect$$libinit$$00000023)
    .ARM.Collect$$libinit$$00000025          0x08000162   Section        0  libinit2.o(.ARM.Collect$$libinit$$00000025)
    .ARM.Collect$$libinit$$0000002C          0x08000162   Section        0  libinit2.o(.ARM.Collect$$libinit$$0000002C)
    .ARM.Collect$$libinit$$0000002E          0x08000162   Section        0  libinit2.o(.ARM.Collect$$libinit$$0000002E)
    .ARM.Collect$$libinit$$00000030          0x08000162   Section        0  libinit2.o(.ARM.Collect$$libinit$$00000030)
    .ARM.Collect$$libinit$$00000032          0x08000162   Section        0  libinit2.o(.ARM.Collect$$libinit$$00000032)
    .ARM.Collect$$libinit$$00000033          0x08000162   Section        2  libinit2.o(.ARM.Collect$$libinit$$00000033)
    .ARM.Collect$$libshutdown$$00000000      0x08000164   Section        2  libshutdown.o(.ARM.Collect$$libshutdown$$00000000)
    .ARM.Collect$$libshutdown$$00000002      0x08000166   Section        0  libshutdown2.o(.ARM.Collect$$libshutdown$$00000002)
    .ARM.Collect$$libshutdown$$00000004      0x08000166   Section        0  libshutdown2.o(.ARM.Collect$$libshutdown$$00000004)
    .ARM.Collect$$libshutdown$$00000007      0x08000166   Section        0  libshutdown2.o(.ARM.Collect$$libshutdown$$00000007)
    .ARM.Collect$$libshutdown$$0000000A      0x08000166   Section        0  libshutdown2.o(.ARM.Collect$$libshutdown$$0000000A)
    .ARM.Collect$$libshutdown$$0000000C      0x08000166   Section        0  libshutdown2.o(.ARM.Collect$$libshutdown$$0000000C)
    .ARM.Collect$$libshutdown$$0000000F      0x08000166   Section        0  libshutdown2.o(.ARM.Collect$$libshutdown$$0000000F)
    .ARM.Collect$$libshutdown$$00000010      0x08000166   Section        2  libshutdown2.o(.ARM.Collect$$libshutdown$$00000010)
    .ARM.Collect$$rtentry$$00000000          0x08000168   Section        0  __rtentry.o(.ARM.Collect$$rtentry$$00000000)
    .ARM.Collect$$rtentry$$00000002          0x08000168   Section        0  __rtentry2.o(.ARM.Collect$$rtentry$$00000002)
    .ARM.Collect$$rtentry$$00000004          0x08000168   Section        6  __rtentry4.o(.ARM.Collect$$rtentry$$00000004)
    .ARM.Collect$$rtentry$$00000009          0x0800016e   Section        0  __rtentry2.o(.ARM.Collect$$rtentry$$00000009)
    .ARM.Collect$$rtentry$$0000000A          0x0800016e   Section        4  __rtentry2.o(.ARM.Collect$$rtentry$$0000000A)
    .ARM.Collect$$rtentry$$0000000C          0x08000172   Section        0  __rtentry2.o(.ARM.Collect$$rtentry$$0000000C)
    .ARM.Collect$$rtentry$$0000000D          0x08000172   Section        8  __rtentry2.o(.ARM.Collect$$rtentry$$0000000D)
    .ARM.Collect$$rtexit$$00000000           0x0800017a   Section        2  rtexit.o(.ARM.Collect$$rtexit$$00000000)
    .ARM.Collect$$rtexit$$00000002           0x0800017c   Section        0  rtexit2.o(.ARM.Collect$$rtexit$$00000002)
    .ARM.Collect$$rtexit$$00000003           0x0800017c   Section        4  rtexit2.o(.ARM.Collect$$rtexit$$00000003)
    .ARM.Collect$$rtexit$$00000004           0x08000180   Section        6  rtexit2.o(.ARM.Collect$$rtexit$$00000004)
    .text                                    0x08000188   Section       64  startup_stm32f10x_md.o(.text)
    .text                                    0x080001c8   Section      180  os_cpu_a.o(.text)
    .text                                    0x0800027c   Section        0  heapauxi.o(.text)
    .text                                    0x08000282   Section       74  sys_stackheap_outer.o(.text)
    .text                                    0x080002cc   Section        0  exit.o(.text)
    .text                                    0x080002e0   Section        8  libspace.o(.text)
    .text                                    0x080002e8   Section        0  sys_exit.o(.text)
    .text                                    0x080002f4   Section        2  use_no_semi.o(.text)
    .text                                    0x080002f6   Section        0  indicate_semi.o(.text)
    i.Annex_Seal_By                          0x080002f6   Section        0  motor_ctrl.o(i.Annex_Seal_By)
    i.BusFault_Handler                       0x08000312   Section        0  stm32f10x_it.o(i.BusFault_Handler)
    i.Check_Null_Buffer                      0x08000318   Section        0  usart_master.o(i.Check_Null_Buffer)
    i.Compute_Time_Of                        0x08000378   Section        0  main.o(i.Compute_Time_Of)
    i.DebugMon_Handler                       0x08000480   Section        0  stm32f10x_it.o(i.DebugMon_Handler)
    i.GPIO_Init                              0x08000482   Section        0  stm32f10x_gpio.o(i.GPIO_Init)
    i.GPIO_IronHand_Init                     0x08000598   Section        0  gpio_motor.o(i.GPIO_IronHand_Init)
    i.GPIO_Key_Init                          0x080005d0   Section        0  key8.o(i.GPIO_Key_Init)
    i.GPIO_Motor_Init                        0x080005f8   Section        0  gpio_motor.o(i.GPIO_Motor_Init)
    i.GPIO_ResetBits                         0x08000658   Section        0  stm32f10x_gpio.o(i.GPIO_ResetBits)
    i.GPIO_SetBits                           0x0800065c   Section        0  stm32f10x_gpio.o(i.GPIO_SetBits)
    i.GPIO_USART1_Init                       0x08000660   Section        0  usart_master.o(i.GPIO_USART1_Init)
    i.Get_Motor_RunningState                 0x080006a4   Section        0  motor_ctrl.o(i.Get_Motor_RunningState)
    i.Get_Seal_By                            0x080006be   Section        0  ironhand.o(i.Get_Seal_By)
    i.HardFault_Handler                      0x080006fe   Section        0  stm32f10x_it.o(i.HardFault_Handler)
    i.Init_Motor_Struct                      0x08000704   Section        0  motor.o(i.Init_Motor_Struct)
    i.Init_USART1_Buffer                     0x08000780   Section        0  usart_master.o(i.Init_USART1_Buffer)
    i.Main_Init                              0x080007f4   Section        0  main.o(i.Main_Init)
    i.MemManage_Handler                      0x080008a8   Section        0  stm32f10x_it.o(i.MemManage_Handler)
    i.NMI_Handler                            0x080008ac   Section        0  stm32f10x_it.o(i.NMI_Handler)
    i.NVIC_Configuration                     0x080008ae   Section        0  sys.o(i.NVIC_Configuration)
    i.NVIC_Init                              0x080008bc   Section        0  misc.o(i.NVIC_Init)
    i.NVIC_PriorityGroupConfig               0x0800092c   Section        0  misc.o(i.NVIC_PriorityGroupConfig)
    i.OSTaskSwHook                           0x08000940   Section        0  os_cpu_c.o(i.OSTaskSwHook)
    i.RCC_APB1PeriphClockCmd                 0x08000944   Section        0  stm32f10x_rcc.o(i.RCC_APB1PeriphClockCmd)
    i.RCC_APB1PeriphResetCmd                 0x08000964   Section        0  stm32f10x_rcc.o(i.RCC_APB1PeriphResetCmd)
    i.RCC_APB2PeriphClockCmd                 0x08000984   Section        0  stm32f10x_rcc.o(i.RCC_APB2PeriphClockCmd)
    i.RCC_APB2PeriphResetCmd                 0x080009a4   Section        0  stm32f10x_rcc.o(i.RCC_APB2PeriphResetCmd)
    i.RCC_GetClocksFreq                      0x080009c4   Section        0  stm32f10x_rcc.o(i.RCC_GetClocksFreq)
    i.SVC_Handler                            0x08000a98   Section        0  stm32f10x_it.o(i.SVC_Handler)
    i.SetSysClock                            0x08000a9a   Section        0  system_stm32f10x.o(i.SetSysClock)
    SetSysClock                              0x08000a9b   Thumb Code     8  system_stm32f10x.o(i.SetSysClock)
    i.SetSysClockTo72                        0x08000aa4   Section        0  system_stm32f10x.o(i.SetSysClockTo72)
    SetSysClockTo72                          0x08000aa5   Thumb Code   214  system_stm32f10x.o(i.SetSysClockTo72)
    i.Set_Motor_CCWPort                      0x08000b84   Section        0  ironhand.o(i.Set_Motor_CCWPort)
    i.Set_Motor_CWPort                       0x08000c90   Section        0  ironhand.o(i.Set_Motor_CWPort)
    i.Set_Motor_Dir                          0x08000d9c   Section        0  motor_ctrl.o(i.Set_Motor_Dir)
    i.Set_Motor_EN                           0x08000e08   Section        0  motor_ctrl.o(i.Set_Motor_EN)
    i.Set_Motor_Speed                        0x08000e84   Section        0  motor_ctrl.o(i.Set_Motor_Speed)
    i.Start_Motor_withS                      0x08000e8c   Section        0  motor_ctrl.o(i.Start_Motor_withS)
    i.Step                                   0x08000f0c   Section        0  main.o(i.Step)
    i.Stop_Motor_withS                       0x080010e4   Section        0  motor_ctrl.o(i.Stop_Motor_withS)
    i.SysTick_CLKSourceConfig                0x08001168   Section        0  misc.o(i.SysTick_CLKSourceConfig)
    i.SysTick_Handler                        0x08001190   Section        0  stm32f10x_it.o(i.SysTick_Handler)
    i.SystemInit                             0x08001194   Section        0  system_stm32f10x.o(i.SystemInit)
    i.TIM1Nvic_Config_Init                   0x080011f4   Section        0  timer1.o(i.TIM1Nvic_Config_Init)
    i.TIM1_Config_Init                       0x08001214   Section        0  timer1.o(i.TIM1_Config_Init)
    i.TIM1_UP_IRQHandler                     0x0800126c   Section        0  timer1.o(i.TIM1_UP_IRQHandler)
    i.TIM2_GPIO_PWM_Init                     0x08001308   Section        0  gpio_motor.o(i.TIM2_GPIO_PWM_Init)
    i.TIM2_PWM_Config_Init                   0x08001334   Section        0  pwm.o(i.TIM2_PWM_Config_Init)
    i.TIM3_GPIO_PWM_Init                     0x080013a8   Section        0  gpio_motor.o(i.TIM3_GPIO_PWM_Init)
    i.TIM3_PWM_Config_Init                   0x080013d4   Section        0  pwm.o(i.TIM3_PWM_Config_Init)
    i.TIM4_GPIO_PWM_Init                     0x08001448   Section        0  gpio_motor.o(i.TIM4_GPIO_PWM_Init)
    i.TIM4_PWM_Config_Init                   0x08001474   Section        0  pwm.o(i.TIM4_PWM_Config_Init)
    i.TIM_ClearFlag                          0x080014e8   Section        0  stm32f10x_tim.o(i.TIM_ClearFlag)
    i.TIM_ClearITPendingBit                  0x080014ee   Section        0  stm32f10x_tim.o(i.TIM_ClearITPendingBit)
    i.TIM_Cmd                                0x080014f4   Section        0  stm32f10x_tim.o(i.TIM_Cmd)
    i.TIM_GetITStatus                        0x0800150c   Section        0  stm32f10x_tim.o(i.TIM_GetITStatus)
    i.TIM_ITConfig                           0x0800152e   Section        0  stm32f10x_tim.o(i.TIM_ITConfig)
    i.TIM_OC2Init                            0x08001540   Section        0  stm32f10x_tim.o(i.TIM_OC2Init)
    i.TIM_OC2PreloadConfig                   0x080015e4   Section        0  stm32f10x_tim.o(i.TIM_OC2PreloadConfig)
    i.TIM_OCENSet                            0x080015fe   Section        0  motor_ctrl.o(i.TIM_OCENSet)
    i.TIM_TimeBaseInit                       0x08001620   Section        0  stm32f10x_tim.o(i.TIM_TimeBaseInit)
    i.USART1Nvic_Config_Init                 0x080016c4   Section        0  usart_master.o(i.USART1Nvic_Config_Init)
    i.USART1_IRQHandler                      0x080016e4   Section        0  usart_master.o(i.USART1_IRQHandler)
    i.USART1_Master_Init                     0x0800182c   Section        0  usart_master.o(i.USART1_Master_Init)
    i.USART_Cmd                              0x08001884   Section        0  stm32f10x_usart.o(i.USART_Cmd)
    i.USART_DeInit                           0x0800189c   Section        0  stm32f10x_usart.o(i.USART_DeInit)
    i.USART_GetFlagStatus                    0x08001938   Section        0  stm32f10x_usart.o(i.USART_GetFlagStatus)
    i.USART_ITConfig                         0x08001952   Section        0  stm32f10x_usart.o(i.USART_ITConfig)
    i.USART_Init                             0x0800199c   Section        0  stm32f10x_usart.o(i.USART_Init)
    i.USART_ReceiveData                      0x08001a74   Section        0  stm32f10x_usart.o(i.USART_ReceiveData)
    i.USART_SendData                         0x08001a7e   Section        0  stm32f10x_usart.o(i.USART_SendData)
    i.UsageFault_Handler                     0x08001a86   Section        0  stm32f10x_it.o(i.UsageFault_Handler)
    i.delay_init                             0x08001a8c   Section        0  delay.o(i.delay_init)
    i.delay_ms                               0x08001ad0   Section        0  delay.o(i.delay_ms)
    i.delay_s                                0x08001b1c   Section        0  delay.o(i.delay_s)
    i.delay_us                               0x08001b34   Section        0  delay.o(i.delay_us)
    i.main                                   0x08001b80   Section        0  main.o(i.main)
    x$fpl$d2f                                0x08001c14   Section       98  d2f.o(x$fpl$d2f)
    x$fpl$ddiv                               0x08001c78   Section      688  ddiv.o(x$fpl$ddiv)
    ddiv_entry                               0x08001c7f   Thumb Code     0  ddiv.o(x$fpl$ddiv)
    x$fpl$dflt                               0x08001f28   Section       46  dflt_clz.o(x$fpl$dflt)
    x$fpl$dmul                               0x08001f58   Section      340  dmul.o(x$fpl$dmul)
    x$fpl$dnaninf                            0x080020ac   Section      156  dnaninf.o(x$fpl$dnaninf)
    x$fpl$dretinf                            0x08002148   Section       12  dretinf.o(x$fpl$dretinf)
    x$fpl$fretinf                            0x08002154   Section       10  fretinf.o(x$fpl$fretinf)
    .constdata                               0x0800215e   Section     1730  motor_ctrl.o(.constdata)
    x$fpl$usenofp                            0x0800215e   Section        0  usenofp.o(x$fpl$usenofp)
    .data                                    0x20000000   Section       12  main.o(.data)
    i                                        0x20000004   Data           4  main.o(.data)
    k                                        0x20000008   Data           4  main.o(.data)
    .data                                    0x2000000c   Section       20  system_stm32f10x.o(.data)
    .data                                    0x20000020   Section        4  delay.o(.data)
    fac_us                                   0x20000020   Data           1  delay.o(.data)
    fac_ms                                   0x20000022   Data           2  delay.o(.data)
    .data                                    0x20000024   Section       20  stm32f10x_rcc.o(.data)
    APBAHBPrescTable                         0x20000024   Data          16  stm32f10x_rcc.o(.data)
    ADCPrescTable                            0x20000034   Data           4  stm32f10x_rcc.o(.data)
    .data                                    0x20000038   Section       72  os_core.o(.data)
    .bss                                     0x20000080   Section      212  main.o(.bss)
    .bss                                     0x20000154   Section       96  libspace.o(.bss)
    HEAP                                     0x200001b8   Section      512  startup_stm32f10x_md.o(HEAP)
    Heap_Mem                                 0x200001b8   Data         512  startup_stm32f10x_md.o(HEAP)
    STACK                                    0x200003b8   Section     1024  startup_stm32f10x_md.o(STACK)
    Stack_Mem                                0x200003b8   Data        1024  startup_stm32f10x_md.o(STACK)
    __initial_sp                             0x200007b8   Data           0  startup_stm32f10x_md.o(STACK)

    Global Symbols

    Symbol Name                              Value     Ov Type        Size  Object(Section)

    BuildAttributes$$THM_ISAv4$P$D$K$B$S$PE$A:L22UL41UL21$X:L11$S22US41US21$IEEE1$IW$USESV6$~STKCKD$USESV7$~SHL$OSPACE$ROPI$EBA8$UX$STANDARDLIB$REQ8$PRES8$EABIv2 0x00000000   Number         0  anon$$obj.o ABSOLUTE
    __ARM_use_no_argv                        0x00000000   Number         0  main.o ABSOLUTE
    __ARM_exceptions_init                     - Undefined Weak Reference
    __alloca_initialize                       - Undefined Weak Reference
    __arm_preinit_                            - Undefined Weak Reference
    __cpp_initialize__aeabi_                  - Undefined Weak Reference
    __cxa_finalize                            - Undefined Weak Reference
    __rt_locale                               - Undefined Weak Reference
    __sigvec_lookup                           - Undefined Weak Reference
    _atexit_init                              - Undefined Weak Reference
    _call_atexit_fns                          - Undefined Weak Reference
    _clock_init                               - Undefined Weak Reference
    _fp_trap_init                             - Undefined Weak Reference
    _fp_trap_shutdown                         - Undefined Weak Reference
    _get_lc_collate                           - Undefined Weak Reference
    _get_lc_ctype                             - Undefined Weak Reference
    _get_lc_monetary                          - Undefined Weak Reference
    _get_lc_numeric                           - Undefined Weak Reference
    _get_lc_time                              - Undefined Weak Reference
    _getenv_init                              - Undefined Weak Reference
    _handle_redirection                       - Undefined Weak Reference
    _init_alloc                               - Undefined Weak Reference
    _init_user_alloc                          - Undefined Weak Reference
    _initio                                   - Undefined Weak Reference
    _rand_init                                - Undefined Weak Reference
    _signal_finish                            - Undefined Weak Reference
    _signal_init                              - Undefined Weak Reference
    _terminate_alloc                          - Undefined Weak Reference
    _terminate_user_alloc                     - Undefined Weak Reference
    _terminateio                              - Undefined Weak Reference
    __Vectors_Size                           0x000000ec   Number         0  startup_stm32f10x_md.o ABSOLUTE
    __Vectors                                0x08000000   Data           4  startup_stm32f10x_md.o(RESET)
    __Vectors_End                            0x080000ec   Data           0  startup_stm32f10x_md.o(RESET)
    __main                                   0x080000ed   Thumb Code     8  __main.o(!!!main)
    __scatterload                            0x080000f5   Thumb Code     0  __scatter.o(!!!scatter)
    __scatterload_rt2                        0x080000f5   Thumb Code    44  __scatter.o(!!!scatter)
    __scatterload_rt2_thumb_only             0x080000f5   Thumb Code     0  __scatter.o(!!!scatter)
    __scatterload_null                       0x08000103   Thumb Code     0  __scatter.o(!!!scatter)
    __scatterload_copy                       0x08000129   Thumb Code    26  __scatter_copy.o(!!handler_copy)
    __scatterload_zeroinit                   0x08000145   Thumb Code    28  __scatter_zi.o(!!handler_zi)
    __rt_lib_init                            0x08000161   Thumb Code     0  libinit.o(.ARM.Collect$$libinit$$00000000)
    __rt_lib_init_alloca_1                   0x08000163   Thumb Code     0  libinit2.o(.ARM.Collect$$libinit$$0000002E)
    __rt_lib_init_argv_1                     0x08000163   Thumb Code     0  libinit2.o(.ARM.Collect$$libinit$$0000002C)
    __rt_lib_init_atexit_1                   0x08000163   Thumb Code     0  libinit2.o(.ARM.Collect$$libinit$$0000001B)
    __rt_lib_init_clock_1                    0x08000163   Thumb Code     0  libinit2.o(.ARM.Collect$$libinit$$00000021)
    __rt_lib_init_cpp_1                      0x08000163   Thumb Code     0  libinit2.o(.ARM.Collect$$libinit$$00000032)
    __rt_lib_init_exceptions_1               0x08000163   Thumb Code     0  libinit2.o(.ARM.Collect$$libinit$$00000030)
    __rt_lib_init_fp_1                       0x08000163   Thumb Code     0  libinit2.o(.ARM.Collect$$libinit$$00000002)
    __rt_lib_init_fp_trap_1                  0x08000163   Thumb Code     0  libinit2.o(.ARM.Collect$$libinit$$0000001F)
    __rt_lib_init_getenv_1                   0x08000163   Thumb Code     0  libinit2.o(.ARM.Collect$$libinit$$00000023)
    __rt_lib_init_heap_1                     0x08000163   Thumb Code     0  libinit2.o(.ARM.Collect$$libinit$$0000000A)
    __rt_lib_init_lc_collate_1               0x08000163   Thumb Code     0  libinit2.o(.ARM.Collect$$libinit$$00000011)
    __rt_lib_init_lc_ctype_1                 0x08000163   Thumb Code     0  libinit2.o(.ARM.Collect$$libinit$$00000013)
    __rt_lib_init_lc_monetary_1              0x08000163   Thumb Code     0  libinit2.o(.ARM.Collect$$libinit$$00000015)
    __rt_lib_init_lc_numeric_1               0x08000163   Thumb Code     0  libinit2.o(.ARM.Collect$$libinit$$00000017)
    __rt_lib_init_lc_time_1                  0x08000163   Thumb Code     0  libinit2.o(.ARM.Collect$$libinit$$00000019)
    __rt_lib_init_preinit_1                  0x08000163   Thumb Code     0  libinit2.o(.ARM.Collect$$libinit$$00000004)
    __rt_lib_init_rand_1                     0x08000163   Thumb Code     0  libinit2.o(.ARM.Collect$$libinit$$0000000E)
    __rt_lib_init_return                     0x08000163   Thumb Code     0  libinit2.o(.ARM.Collect$$libinit$$00000033)
    __rt_lib_init_signal_1                   0x08000163   Thumb Code     0  libinit2.o(.ARM.Collect$$libinit$$0000001D)
    __rt_lib_init_stdio_1                    0x08000163   Thumb Code     0  libinit2.o(.ARM.Collect$$libinit$$00000025)
    __rt_lib_init_user_alloc_1               0x08000163   Thumb Code     0  libinit2.o(.ARM.Collect$$libinit$$0000000C)
    __rt_lib_shutdown                        0x08000165   Thumb Code     0  libshutdown.o(.ARM.Collect$$libshutdown$$00000000)
    __rt_lib_shutdown_cpp_1                  0x08000167   Thumb Code     0  libshutdown2.o(.ARM.Collect$$libshutdown$$00000002)
    __rt_lib_shutdown_fp_trap_1              0x08000167   Thumb Code     0  libshutdown2.o(.ARM.Collect$$libshutdown$$00000007)
    __rt_lib_shutdown_heap_1                 0x08000167   Thumb Code     0  libshutdown2.o(.ARM.Collect$$libshutdown$$0000000F)
    __rt_lib_shutdown_return                 0x08000167   Thumb Code     0  libshutdown2.o(.ARM.Collect$$libshutdown$$00000010)
    __rt_lib_shutdown_signal_1               0x08000167   Thumb Code     0  libshutdown2.o(.ARM.Collect$$libshutdown$$0000000A)
    __rt_lib_shutdown_stdio_1                0x08000167   Thumb Code     0  libshutdown2.o(.ARM.Collect$$libshutdown$$00000004)
    __rt_lib_shutdown_user_alloc_1           0x08000167   Thumb Code     0  libshutdown2.o(.ARM.Collect$$libshutdown$$0000000C)
    __rt_entry                               0x08000169   Thumb Code     0  __rtentry.o(.ARM.Collect$$rtentry$$00000000)
    __rt_entry_presh_1                       0x08000169   Thumb Code     0  __rtentry2.o(.ARM.Collect$$rtentry$$00000002)
    __rt_entry_sh                            0x08000169   Thumb Code     0  __rtentry4.o(.ARM.Collect$$rtentry$$00000004)
    __rt_entry_li                            0x0800016f   Thumb Code     0  __rtentry2.o(.ARM.Collect$$rtentry$$0000000A)
    __rt_entry_postsh_1                      0x0800016f   Thumb Code     0  __rtentry2.o(.ARM.Collect$$rtentry$$00000009)
    __rt_entry_main                          0x08000173   Thumb Code     0  __rtentry2.o(.ARM.Collect$$rtentry$$0000000D)
    __rt_entry_postli_1                      0x08000173   Thumb Code     0  __rtentry2.o(.ARM.Collect$$rtentry$$0000000C)
    __rt_exit                                0x0800017b   Thumb Code     0  rtexit.o(.ARM.Collect$$rtexit$$00000000)
    __rt_exit_ls                             0x0800017d   Thumb Code     0  rtexit2.o(.ARM.Collect$$rtexit$$00000003)
    __rt_exit_prels_1                        0x0800017d   Thumb Code     0  rtexit2.o(.ARM.Collect$$rtexit$$00000002)
    __rt_exit_exit                           0x08000181   Thumb Code     0  rtexit2.o(.ARM.Collect$$rtexit$$00000004)
    Reset_Handler                            0x08000189   Thumb Code     8  startup_stm32f10x_md.o(.text)
    ADC1_2_IRQHandler                        0x080001a3   Thumb Code     0  startup_stm32f10x_md.o(.text)
    CAN1_RX1_IRQHandler                      0x080001a3   Thumb Code     0  startup_stm32f10x_md.o(.text)
    CAN1_SCE_IRQHandler                      0x080001a3   Thumb Code     0  startup_stm32f10x_md.o(.text)
    DMA1_Channel1_IRQHandler                 0x080001a3   Thumb Code     0  startup_stm32f10x_md.o(.text)
    DMA1_Channel2_IRQHandler                 0x080001a3   Thumb Code     0  startup_stm32f10x_md.o(.text)
    DMA1_Channel3_IRQHandler                 0x080001a3   Thumb Code     0  startup_stm32f10x_md.o(.text)
    DMA1_Channel4_IRQHandler                 0x080001a3   Thumb Code     0  startup_stm32f10x_md.o(.text)
    DMA1_Channel5_IRQHandler                 0x080001a3   Thumb Code     0  startup_stm32f10x_md.o(.text)
    DMA1_Channel6_IRQHandler                 0x080001a3   Thumb Code     0  startup_stm32f10x_md.o(.text)
    DMA1_Channel7_IRQHandler                 0x080001a3   Thumb Code     0  startup_stm32f10x_md.o(.text)
    EXTI0_IRQHandler                         0x080001a3   Thumb Code     0  startup_stm32f10x_md.o(.text)
    EXTI15_10_IRQHandler                     0x080001a3   Thumb Code     0  startup_stm32f10x_md.o(.text)
    EXTI1_IRQHandler                         0x080001a3   Thumb Code     0  startup_stm32f10x_md.o(.text)
    EXTI2_IRQHandler                         0x080001a3   Thumb Code     0  startup_stm32f10x_md.o(.text)
    EXTI3_IRQHandler                         0x080001a3   Thumb Code     0  startup_stm32f10x_md.o(.text)
    EXTI4_IRQHandler                         0x080001a3   Thumb Code     0  startup_stm32f10x_md.o(.text)
    EXTI9_5_IRQHandler                       0x080001a3   Thumb Code     0  startup_stm32f10x_md.o(.text)
    FLASH_IRQHandler                         0x080001a3   Thumb Code     0  startup_stm32f10x_md.o(.text)
    I2C1_ER_IRQHandler                       0x080001a3   Thumb Code     0  startup_stm32f10x_md.o(.text)
    I2C1_EV_IRQHandler                       0x080001a3   Thumb Code     0  startup_stm32f10x_md.o(.text)
    I2C2_ER_IRQHandler                       0x080001a3   Thumb Code     0  startup_stm32f10x_md.o(.text)
    I2C2_EV_IRQHandler                       0x080001a3   Thumb Code     0  startup_stm32f10x_md.o(.text)
    PVD_IRQHandler                           0x080001a3   Thumb Code     0  startup_stm32f10x_md.o(.text)
    RCC_IRQHandler                           0x080001a3   Thumb Code     0  startup_stm32f10x_md.o(.text)
    RTCAlarm_IRQHandler                      0x080001a3   Thumb Code     0  startup_stm32f10x_md.o(.text)
    RTC_IRQHandler                           0x080001a3   Thumb Code     0  startup_stm32f10x_md.o(.text)
    SPI1_IRQHandler                          0x080001a3   Thumb Code     0  startup_stm32f10x_md.o(.text)
    SPI2_IRQHandler                          0x080001a3   Thumb Code     0  startup_stm32f10x_md.o(.text)
    TAMPER_IRQHandler                        0x080001a3   Thumb Code     0  startup_stm32f10x_md.o(.text)
    TIM1_BRK_IRQHandler                      0x080001a3   Thumb Code     0  startup_stm32f10x_md.o(.text)
    TIM1_CC_IRQHandler                       0x080001a3   Thumb Code     0  startup_stm32f10x_md.o(.text)
    TIM1_TRG_COM_IRQHandler                  0x080001a3   Thumb Code     0  startup_stm32f10x_md.o(.text)
    TIM2_IRQHandler                          0x080001a3   Thumb Code     0  startup_stm32f10x_md.o(.text)
    TIM3_IRQHandler                          0x080001a3   Thumb Code     0  startup_stm32f10x_md.o(.text)
    TIM4_IRQHandler                          0x080001a3   Thumb Code     0  startup_stm32f10x_md.o(.text)
    USART2_IRQHandler                        0x080001a3   Thumb Code     0  startup_stm32f10x_md.o(.text)
    USART3_IRQHandler                        0x080001a3   Thumb Code     0  startup_stm32f10x_md.o(.text)
    USBWakeUp_IRQHandler                     0x080001a3   Thumb Code     0  startup_stm32f10x_md.o(.text)
    USB_HP_CAN1_TX_IRQHandler                0x080001a3   Thumb Code     0  startup_stm32f10x_md.o(.text)
    USB_LP_CAN1_RX0_IRQHandler               0x080001a3   Thumb Code     0  startup_stm32f10x_md.o(.text)
    WWDG_IRQHandler                          0x080001a3   Thumb Code     0  startup_stm32f10x_md.o(.text)
    __user_initial_stackheap                 0x080001a5   Thumb Code     0  startup_stm32f10x_md.o(.text)
    OS_CPU_SR_Save                           0x080001c9   Thumb Code     0  os_cpu_a.o(.text)
    OS_CPU_SR_Restore                        0x080001d1   Thumb Code     0  os_cpu_a.o(.text)
    OSStartHighRdy                           0x080001d7   Thumb Code     0  os_cpu_a.o(.text)
    OSCtxSw                                  0x080001f9   Thumb Code     0  os_cpu_a.o(.text)
    OSIntCtxSw                               0x08000207   Thumb Code     0  os_cpu_a.o(.text)
    PendSV_Handler                           0x08000217   Thumb Code     0  os_cpu_a.o(.text)
    __use_two_region_memory                  0x0800027d   Thumb Code     2  heapauxi.o(.text)
    __rt_heap_escrow$2region                 0x0800027f   Thumb Code     2  heapauxi.o(.text)
    __rt_heap_expand$2region                 0x08000281   Thumb Code     2  heapauxi.o(.text)
    __user_setup_stackheap                   0x08000283   Thumb Code    74  sys_stackheap_outer.o(.text)
    exit                                     0x080002cd   Thumb Code    18  exit.o(.text)
    __user_libspace                          0x080002e1   Thumb Code     8  libspace.o(.text)
    __user_perproc_libspace                  0x080002e1   Thumb Code     0  libspace.o(.text)
    __user_perthread_libspace                0x080002e1   Thumb Code     0  libspace.o(.text)
    _sys_exit                                0x080002e9   Thumb Code     8  sys_exit.o(.text)
    __I$use$semihosting                      0x080002f5   Thumb Code     0  use_no_semi.o(.text)
    __use_no_semihosting_swi                 0x080002f5   Thumb Code     2  use_no_semi.o(.text)
    Annex_Seal_By                            0x080002f7   Thumb Code    28  motor_ctrl.o(i.Annex_Seal_By)
    __semihosting_library_function           0x080002f7   Thumb Code     0  indicate_semi.o(.text)
    BusFault_Handler                         0x08000313   Thumb Code     4  stm32f10x_it.o(i.BusFault_Handler)
    Check_Null_Buffer                        0x08000319   Thumb Code    92  usart_master.o(i.Check_Null_Buffer)
    Compute_Time_Of                          0x08000379   Thumb Code   248  main.o(i.Compute_Time_Of)
    DebugMon_Handler                         0x08000481   Thumb Code     2  stm32f10x_it.o(i.DebugMon_Handler)
    GPIO_Init                                0x08000483   Thumb Code   278  stm32f10x_gpio.o(i.GPIO_Init)
    GPIO_IronHand_Init                       0x08000599   Thumb Code    50  gpio_motor.o(i.GPIO_IronHand_Init)
    GPIO_Key_Init                            0x080005d1   Thumb Code    34  key8.o(i.GPIO_Key_Init)
    GPIO_Motor_Init                          0x080005f9   Thumb Code    90  gpio_motor.o(i.GPIO_Motor_Init)
    GPIO_ResetBits                           0x08000659   Thumb Code     4  stm32f10x_gpio.o(i.GPIO_ResetBits)
    GPIO_SetBits                             0x0800065d   Thumb Code     4  stm32f10x_gpio.o(i.GPIO_SetBits)
    GPIO_USART1_Init                         0x08000661   Thumb Code    62  usart_master.o(i.GPIO_USART1_Init)
    Get_Motor_RunningState                   0x080006a5   Thumb Code    26  motor_ctrl.o(i.Get_Motor_RunningState)
    Get_Seal_By                              0x080006bf   Thumb Code    64  ironhand.o(i.Get_Seal_By)
    HardFault_Handler                        0x080006ff   Thumb Code     4  stm32f10x_it.o(i.HardFault_Handler)
    Init_Motor_Struct                        0x08000705   Thumb Code   104  motor.o(i.Init_Motor_Struct)
    Init_USART1_Buffer                       0x08000781   Thumb Code   112  usart_master.o(i.Init_USART1_Buffer)
    Main_Init                                0x080007f5   Thumb Code   158  main.o(i.Main_Init)
    MemManage_Handler                        0x080008a9   Thumb Code     4  stm32f10x_it.o(i.MemManage_Handler)
    NMI_Handler                              0x080008ad   Thumb Code     2  stm32f10x_it.o(i.NMI_Handler)
    NVIC_Configuration                       0x080008af   Thumb Code    12  sys.o(i.NVIC_Configuration)
    NVIC_Init                                0x080008bd   Thumb Code   100  misc.o(i.NVIC_Init)
    NVIC_PriorityGroupConfig                 0x0800092d   Thumb Code    10  misc.o(i.NVIC_PriorityGroupConfig)
    OSTaskSwHook                             0x08000941   Thumb Code     2  os_cpu_c.o(i.OSTaskSwHook)
    RCC_APB1PeriphClockCmd                   0x08000945   Thumb Code    26  stm32f10x_rcc.o(i.RCC_APB1PeriphClockCmd)
    RCC_APB1PeriphResetCmd                   0x08000965   Thumb Code    26  stm32f10x_rcc.o(i.RCC_APB1PeriphResetCmd)
    RCC_APB2PeriphClockCmd                   0x08000985   Thumb Code    26  stm32f10x_rcc.o(i.RCC_APB2PeriphClockCmd)
    RCC_APB2PeriphResetCmd                   0x080009a5   Thumb Code    26  stm32f10x_rcc.o(i.RCC_APB2PeriphResetCmd)
    RCC_GetClocksFreq                        0x080009c5   Thumb Code   192  stm32f10x_rcc.o(i.RCC_GetClocksFreq)
    SVC_Handler                              0x08000a99   Thumb Code     2  stm32f10x_it.o(i.SVC_Handler)
    Set_Motor_CCWPort                        0x08000b85   Thumb Code   260  ironhand.o(i.Set_Motor_CCWPort)
    Set_Motor_CWPort                         0x08000c91   Thumb Code   260  ironhand.o(i.Set_Motor_CWPort)
    Set_Motor_Dir                            0x08000d9d   Thumb Code    94  motor_ctrl.o(i.Set_Motor_Dir)
    Set_Motor_EN                             0x08000e09   Thumb Code   112  motor_ctrl.o(i.Set_Motor_EN)
    Set_Motor_Speed                          0x08000e85   Thumb Code     6  motor_ctrl.o(i.Set_Motor_Speed)
    Start_Motor_withS                        0x08000e8d   Thumb Code   104  motor_ctrl.o(i.Start_Motor_withS)
    Step                                     0x08000f0d   Thumb Code   432  main.o(i.Step)
    Stop_Motor_withS                         0x080010e5   Thumb Code   102  motor_ctrl.o(i.Stop_Motor_withS)
    SysTick_CLKSourceConfig                  0x08001169   Thumb Code    40  misc.o(i.SysTick_CLKSourceConfig)
    SysTick_Handler                          0x08001191   Thumb Code     2  stm32f10x_it.o(i.SysTick_Handler)
    SystemInit                               0x08001195   Thumb Code    78  system_stm32f10x.o(i.SystemInit)
    TIM1Nvic_Config_Init                     0x080011f5   Thumb Code    32  timer1.o(i.TIM1Nvic_Config_Init)
    TIM1_Config_Init                         0x08001215   Thumb Code    84  timer1.o(i.TIM1_Config_Init)
    TIM1_UP_IRQHandler                       0x0800126d   Thumb Code   136  timer1.o(i.TIM1_UP_IRQHandler)
    TIM2_GPIO_PWM_Init                       0x08001309   Thumb Code    38  gpio_motor.o(i.TIM2_GPIO_PWM_Init)
    TIM2_PWM_Config_Init                     0x08001335   Thumb Code   116  pwm.o(i.TIM2_PWM_Config_Init)
    TIM3_GPIO_PWM_Init                       0x080013a9   Thumb Code    38  gpio_motor.o(i.TIM3_GPIO_PWM_Init)
    TIM3_PWM_Config_Init                     0x080013d5   Thumb Code   112  pwm.o(i.TIM3_PWM_Config_Init)
    TIM4_GPIO_PWM_Init                       0x08001449   Thumb Code    38  gpio_motor.o(i.TIM4_GPIO_PWM_Init)
    TIM4_PWM_Config_Init                     0x08001475   Thumb Code   112  pwm.o(i.TIM4_PWM_Config_Init)
    TIM_ClearFlag                            0x080014e9   Thumb Code     6  stm32f10x_tim.o(i.TIM_ClearFlag)
    TIM_ClearITPendingBit                    0x080014ef   Thumb Code     6  stm32f10x_tim.o(i.TIM_ClearITPendingBit)
    TIM_Cmd                                  0x080014f5   Thumb Code    24  stm32f10x_tim.o(i.TIM_Cmd)
    TIM_GetITStatus                          0x0800150d   Thumb Code    34  stm32f10x_tim.o(i.TIM_GetITStatus)
    TIM_ITConfig                             0x0800152f   Thumb Code    18  stm32f10x_tim.o(i.TIM_ITConfig)
    TIM_OC2Init                              0x08001541   Thumb Code   154  stm32f10x_tim.o(i.TIM_OC2Init)
    TIM_OC2PreloadConfig                     0x080015e5   Thumb Code    26  stm32f10x_tim.o(i.TIM_OC2PreloadConfig)
    TIM_OCENSet                              0x080015ff   Thumb Code    32  motor_ctrl.o(i.TIM_OCENSet)
    TIM_TimeBaseInit                         0x08001621   Thumb Code   122  stm32f10x_tim.o(i.TIM_TimeBaseInit)
    USART1Nvic_Config_Init                   0x080016c5   Thumb Code    30  usart_master.o(i.USART1Nvic_Config_Init)
    USART1_IRQHandler                        0x080016e5   Thumb Code   320  usart_master.o(i.USART1_IRQHandler)
    USART1_Master_Init                       0x0800182d   Thumb Code    84  usart_master.o(i.USART1_Master_Init)
    USART_Cmd                                0x08001885   Thumb Code    24  stm32f10x_usart.o(i.USART_Cmd)
    USART_DeInit                             0x0800189d   Thumb Code   134  stm32f10x_usart.o(i.USART_DeInit)
    USART_GetFlagStatus                      0x08001939   Thumb Code    26  stm32f10x_usart.o(i.USART_GetFlagStatus)
    USART_ITConfig                           0x08001953   Thumb Code    74  stm32f10x_usart.o(i.USART_ITConfig)
    USART_Init                               0x0800199d   Thumb Code   210  stm32f10x_usart.o(i.USART_Init)
    USART_ReceiveData                        0x08001a75   Thumb Code    10  stm32f10x_usart.o(i.USART_ReceiveData)
    USART_SendData                           0x08001a7f   Thumb Code     8  stm32f10x_usart.o(i.USART_SendData)
    UsageFault_Handler                       0x08001a87   Thumb Code     4  stm32f10x_it.o(i.UsageFault_Handler)
    delay_init                               0x08001a8d   Thumb Code    50  delay.o(i.delay_init)
    delay_ms                                 0x08001ad1   Thumb Code    72  delay.o(i.delay_ms)
    delay_s                                  0x08001b1d   Thumb Code    24  delay.o(i.delay_s)
    delay_us                                 0x08001b35   Thumb Code    72  delay.o(i.delay_us)
    main                                     0x08001b81   Thumb Code   124  main.o(i.main)
    __aeabi_d2f                              0x08001c15   Thumb Code     0  d2f.o(x$fpl$d2f)
    _d2f                                     0x08001c15   Thumb Code    98  d2f.o(x$fpl$d2f)
    __aeabi_ddiv                             0x08001c79   Thumb Code     0  ddiv.o(x$fpl$ddiv)
    _ddiv                                    0x08001c79   Thumb Code   552  ddiv.o(x$fpl$ddiv)
    __aeabi_i2d                              0x08001f29   Thumb Code     0  dflt_clz.o(x$fpl$dflt)
    _dflt                                    0x08001f29   Thumb Code    46  dflt_clz.o(x$fpl$dflt)
    __aeabi_dmul                             0x08001f59   Thumb Code     0  dmul.o(x$fpl$dmul)
    _dmul                                    0x08001f59   Thumb Code   332  dmul.o(x$fpl$dmul)
    __fpl_dnaninf                            0x080020ad   Thumb Code   156  dnaninf.o(x$fpl$dnaninf)
    __fpl_dretinf                            0x08002149   Thumb Code    12  dretinf.o(x$fpl$dretinf)
    __fpl_fretinf                            0x08002155   Thumb Code    10  fretinf.o(x$fpl$fretinf)
    Svalue_length                            0x0800215e   Data           2  motor_ctrl.o(.constdata)
    __I$use$fp                               0x0800215e   Number         0  usenofp.o(x$fpl$usenofp)
    AccSvalue                                0x08002160   Data         864  motor_ctrl.o(.constdata)
    DecSvalue                                0x080024c0   Data         864  motor_ctrl.o(.constdata)
    Region$$Table$$Base                      0x08002820   Number         0  anon$$obj.o(Region$$Table)
    Region$$Table$$Limit                     0x08002840   Number         0  anon$$obj.o(Region$$Table)
    count_time                               0x20000000   Data           2  main.o(.data)
    Key_Flag                                 0x20000002   Data           2  main.o(.data)
    SystemCoreClock                          0x2000000c   Data           4  system_stm32f10x.o(.data)
    AHBPrescTable                            0x20000010   Data          16  system_stm32f10x.o(.data)
    OSCtxSwCtr                               0x20000038   Data           4  os_core.o(.data)
    OSEventFreeList                          0x2000003c   Data           4  os_core.o(.data)
    OSFlagFreeList                           0x20000040   Data           4  os_core.o(.data)
    OSCPUUsage                               0x20000044   Data           1  os_core.o(.data)
    OSIdleCtrMax                             0x20000048   Data           4  os_core.o(.data)
    OSIdleCtrRun                             0x2000004c   Data           4  os_core.o(.data)
    OSStatRdy                                0x20000050   Data           1  os_core.o(.data)
    OSIntNesting                             0x20000051   Data           1  os_core.o(.data)
    OSLockNesting                            0x20000052   Data           1  os_core.o(.data)
    OSPrioCur                                0x20000053   Data           1  os_core.o(.data)
    OSPrioHighRdy                            0x20000054   Data           1  os_core.o(.data)
    OSRdyGrp                                 0x20000055   Data           1  os_core.o(.data)
    OSRdyTbl                                 0x20000056   Data           8  os_core.o(.data)
    OSRunning                                0x2000005e   Data           1  os_core.o(.data)
    OSTaskCtr                                0x2000005f   Data           1  os_core.o(.data)
    OSIdleCtr                                0x20000060   Data           4  os_core.o(.data)
    OSTCBCur                                 0x20000064   Data           4  os_core.o(.data)
    OSTCBFreeList                            0x20000068   Data           4  os_core.o(.data)
    OSTCBHighRdy                             0x2000006c   Data           4  os_core.o(.data)
    OSTCBList                                0x20000070   Data           4  os_core.o(.data)
    OSTickStepState                          0x20000074   Data           1  os_core.o(.data)
    OSQFreeList                              0x20000078   Data           4  os_core.o(.data)
    OSTime                                   0x2000007c   Data           4  os_core.o(.data)
    rec_buffer                               0x20000080   Data         146  main.o(.bss)
    motor1                                   0x20000112   Data          22  main.o(.bss)
    motor2                                   0x20000128   Data          22  main.o(.bss)
    motor3                                   0x2000013e   Data          22  main.o(.bss)
    __libspace_start                         0x20000154   Data          96  libspace.o(.bss)
    __temporary_stack_top$libspace           0x200001b4   Data           0  libspace.o(.bss)



==============================================================================

Memory Map of the image

  Image Entry point : 0x080000ed

  Load Region LR_IROM1 (Base: 0x08000000, Size: 0x000028c0, Max: 0x00040000, ABSOLUTE)

    Execution Region ER_IROM1 (Base: 0x08000000, Size: 0x00002840, Max: 0x00040000, ABSOLUTE)

    Base Addr    Size         Type   Attr      Idx    E Section Name        Object

    0x08000000   0x000000ec   Data   RO          535    RESET               startup_stm32f10x_md.o
    0x080000ec   0x00000008   Code   RO         4312  * !!!main             c_w.l(__main.o)
    0x080000f4   0x00000034   Code   RO         4490    !!!scatter          c_w.l(__scatter.o)
    0x08000128   0x0000001a   Code   RO         4492    !!handler_copy      c_w.l(__scatter_copy.o)
    0x08000142   0x00000002   PAD
    0x08000144   0x0000001c   Code   RO         4494    !!handler_zi        c_w.l(__scatter_zi.o)
    0x08000160   0x00000002   Code   RO         4360    .ARM.Collect$$libinit$$00000000  c_w.l(libinit.o)
    0x08000162   0x00000000   Code   RO         4367    .ARM.Collect$$libinit$$00000002  c_w.l(libinit2.o)
    0x08000162   0x00000000   Code   RO         4369    .ARM.Collect$$libinit$$00000004  c_w.l(libinit2.o)
    0x08000162   0x00000000   Code   RO         4372    .ARM.Collect$$libinit$$0000000A  c_w.l(libinit2.o)
    0x08000162   0x00000000   Code   RO         4374    .ARM.Collect$$libinit$$0000000C  c_w.l(libinit2.o)
    0x08000162   0x00000000   Code   RO         4376    .ARM.Collect$$libinit$$0000000E  c_w.l(libinit2.o)
    0x08000162   0x00000000   Code   RO         4379    .ARM.Collect$$libinit$$00000011  c_w.l(libinit2.o)
    0x08000162   0x00000000   Code   RO         4381    .ARM.Collect$$libinit$$00000013  c_w.l(libinit2.o)
    0x08000162   0x00000000   Code   RO         4383    .ARM.Collect$$libinit$$00000015  c_w.l(libinit2.o)
    0x08000162   0x00000000   Code   RO         4385    .ARM.Collect$$libinit$$00000017  c_w.l(libinit2.o)
    0x08000162   0x00000000   Code   RO         4387    .ARM.Collect$$libinit$$00000019  c_w.l(libinit2.o)
    0x08000162   0x00000000   Code   RO         4389    .ARM.Collect$$libinit$$0000001B  c_w.l(libinit2.o)
    0x08000162   0x00000000   Code   RO         4391    .ARM.Collect$$libinit$$0000001D  c_w.l(libinit2.o)
    0x08000162   0x00000000   Code   RO         4393    .ARM.Collect$$libinit$$0000001F  c_w.l(libinit2.o)
    0x08000162   0x00000000   Code   RO         4395    .ARM.Collect$$libinit$$00000021  c_w.l(libinit2.o)
    0x08000162   0x00000000   Code   RO         4397    .ARM.Collect$$libinit$$00000023  c_w.l(libinit2.o)
    0x08000162   0x00000000   Code   RO         4399    .ARM.Collect$$libinit$$00000025  c_w.l(libinit2.o)
    0x08000162   0x00000000   Code   RO         4403    .ARM.Collect$$libinit$$0000002C  c_w.l(libinit2.o)
    0x08000162   0x00000000   Code   RO         4405    .ARM.Collect$$libinit$$0000002E  c_w.l(libinit2.o)
    0x08000162   0x00000000   Code   RO         4407    .ARM.Collect$$libinit$$00000030  c_w.l(libinit2.o)
    0x08000162   0x00000000   Code   RO         4409    .ARM.Collect$$libinit$$00000032  c_w.l(libinit2.o)
    0x08000162   0x00000002   Code   RO         4410    .ARM.Collect$$libinit$$00000033  c_w.l(libinit2.o)
    0x08000164   0x00000002   Code   RO         4430    .ARM.Collect$$libshutdown$$00000000  c_w.l(libshutdown.o)
    0x08000166   0x00000000   Code   RO         4443    .ARM.Collect$$libshutdown$$00000002  c_w.l(libshutdown2.o)
    0x08000166   0x00000000   Code   RO         4445    .ARM.Collect$$libshutdown$$00000004  c_w.l(libshutdown2.o)
    0x08000166   0x00000000   Code   RO         4448    .ARM.Collect$$libshutdown$$00000007  c_w.l(libshutdown2.o)
    0x08000166   0x00000000   Code   RO         4451    .ARM.Collect$$libshutdown$$0000000A  c_w.l(libshutdown2.o)
    0x08000166   0x00000000   Code   RO         4453    .ARM.Collect$$libshutdown$$0000000C  c_w.l(libshutdown2.o)
    0x08000166   0x00000000   Code   RO         4456    .ARM.Collect$$libshutdown$$0000000F  c_w.l(libshutdown2.o)
    0x08000166   0x00000002   Code   RO         4457    .ARM.Collect$$libshutdown$$00000010  c_w.l(libshutdown2.o)
    0x08000168   0x00000000   Code   RO         4328    .ARM.Collect$$rtentry$$00000000  c_w.l(__rtentry.o)
    0x08000168   0x00000000   Code   RO         4337    .ARM.Collect$$rtentry$$00000002  c_w.l(__rtentry2.o)
    0x08000168   0x00000006   Code   RO         4349    .ARM.Collect$$rtentry$$00000004  c_w.l(__rtentry4.o)
    0x0800016e   0x00000000   Code   RO         4339    .ARM.Collect$$rtentry$$00000009  c_w.l(__rtentry2.o)
    0x0800016e   0x00000004   Code   RO         4340    .ARM.Collect$$rtentry$$0000000A  c_w.l(__rtentry2.o)
    0x08000172   0x00000000   Code   RO         4342    .ARM.Collect$$rtentry$$0000000C  c_w.l(__rtentry2.o)
    0x08000172   0x00000008   Code   RO         4343    .ARM.Collect$$rtentry$$0000000D  c_w.l(__rtentry2.o)
    0x0800017a   0x00000002   Code   RO         4364    .ARM.Collect$$rtexit$$00000000  c_w.l(rtexit.o)
    0x0800017c   0x00000000   Code   RO         4412    .ARM.Collect$$rtexit$$00000002  c_w.l(rtexit2.o)
    0x0800017c   0x00000004   Code   RO         4413    .ARM.Collect$$rtexit$$00000003  c_w.l(rtexit2.o)
    0x08000180   0x00000006   Code   RO         4414    .ARM.Collect$$rtexit$$00000004  c_w.l(rtexit2.o)
    0x08000186   0x00000002   PAD
    0x08000188   0x00000040   Code   RO          536    .text               startup_stm32f10x_md.o
    0x080001c8   0x000000b4   Code   RO         4305    .text               os_cpu_a.o
    0x0800027c   0x00000006   Code   RO         4310    .text               c_w.l(heapauxi.o)
    0x08000282   0x0000004a   Code   RO         4351    .text               c_w.l(sys_stackheap_outer.o)
    0x080002cc   0x00000012   Code   RO         4353    .text               c_w.l(exit.o)
    0x080002de   0x00000002   PAD
    0x080002e0   0x00000008   Code   RO         4361    .text               c_w.l(libspace.o)
    0x080002e8   0x0000000c   Code   RO         4422    .text               c_w.l(sys_exit.o)
    0x080002f4   0x00000002   Code   RO         4433    .text               c_w.l(use_no_semi.o)
    0x080002f6   0x00000000   Code   RO         4435    .text               c_w.l(indicate_semi.o)
    0x080002f6   0x0000001c   Code   RO          351    i.Annex_Seal_By     motor_ctrl.o
    0x08000312   0x00000004   Code   RO          156    i.BusFault_Handler  stm32f10x_it.o
    0x08000316   0x00000002   PAD
    0x08000318   0x00000060   Code   RO          432    i.Check_Null_Buffer  usart_master.o
    0x08000378   0x00000108   Code   RO            1    i.Compute_Time_Of   main.o
    0x08000480   0x00000002   Code   RO          157    i.DebugMon_Handler  stm32f10x_it.o
    0x08000482   0x00000116   Code   RO          636    i.GPIO_Init         stm32f10x_gpio.o
    0x08000598   0x00000038   Code   RO          217    i.GPIO_IronHand_Init  gpio_motor.o
    0x080005d0   0x00000028   Code   RO          309    i.GPIO_Key_Init     key8.o
    0x080005f8   0x00000060   Code   RO          218    i.GPIO_Motor_Init   gpio_motor.o
    0x08000658   0x00000004   Code   RO          643    i.GPIO_ResetBits    stm32f10x_gpio.o
    0x0800065c   0x00000004   Code   RO          644    i.GPIO_SetBits      stm32f10x_gpio.o
    0x08000660   0x00000044   Code   RO          433    i.GPIO_USART1_Init  usart_master.o
    0x080006a4   0x0000001a   Code   RO          354    i.Get_Motor_RunningState  motor_ctrl.o
    0x080006be   0x00000040   Code   RO          327    i.Get_Seal_By       ironhand.o
    0x080006fe   0x00000004   Code   RO          158    i.HardFault_Handler  stm32f10x_it.o
    0x08000702   0x00000002   PAD
    0x08000704   0x0000007c   Code   RO          420    i.Init_Motor_Struct  motor.o
    0x08000780   0x00000074   Code   RO          434    i.Init_USART1_Buffer  usart_master.o
    0x080007f4   0x000000b4   Code   RO            2    i.Main_Init         main.o
    0x080008a8   0x00000004   Code   RO          159    i.MemManage_Handler  stm32f10x_it.o
    0x080008ac   0x00000002   Code   RO          160    i.NMI_Handler       stm32f10x_it.o
    0x080008ae   0x0000000c   Code   RO          510    i.NVIC_Configuration  sys.o
    0x080008ba   0x00000002   PAD
    0x080008bc   0x00000070   Code   RO          540    i.NVIC_Init         misc.o
    0x0800092c   0x00000014   Code   RO          541    i.NVIC_PriorityGroupConfig  misc.o
    0x08000940   0x00000002   Code   RO         4232    i.OSTaskSwHook      os_cpu_c.o
    0x08000942   0x00000002   PAD
    0x08000944   0x00000020   Code   RO         2694    i.RCC_APB1PeriphClockCmd  stm32f10x_rcc.o
    0x08000964   0x00000020   Code   RO         2695    i.RCC_APB1PeriphResetCmd  stm32f10x_rcc.o
    0x08000984   0x00000020   Code   RO         2696    i.RCC_APB2PeriphClockCmd  stm32f10x_rcc.o
    0x080009a4   0x00000020   Code   RO         2697    i.RCC_APB2PeriphResetCmd  stm32f10x_rcc.o
    0x080009c4   0x000000d4   Code   RO         2704    i.RCC_GetClocksFreq  stm32f10x_rcc.o
    0x08000a98   0x00000002   Code   RO          161    i.SVC_Handler       stm32f10x_it.o
    0x08000a9a   0x00000008   Code   RO          106    i.SetSysClock       system_stm32f10x.o
    0x08000aa2   0x00000002   PAD
    0x08000aa4   0x000000e0   Code   RO          107    i.SetSysClockTo72   system_stm32f10x.o
    0x08000b84   0x0000010c   Code   RO          328    i.Set_Motor_CCWPort  ironhand.o
    0x08000c90   0x0000010c   Code   RO          329    i.Set_Motor_CWPort  ironhand.o
    0x08000d9c   0x0000006c   Code   RO          355    i.Set_Motor_Dir     motor_ctrl.o
    0x08000e08   0x0000007c   Code   RO          356    i.Set_Motor_EN      motor_ctrl.o
    0x08000e84   0x00000006   Code   RO          357    i.Set_Motor_Speed   motor_ctrl.o
    0x08000e8a   0x00000002   PAD
    0x08000e8c   0x00000080   Code   RO          358    i.Start_Motor_withS  motor_ctrl.o
    0x08000f0c   0x000001d8   Code   RO            3    i.Step              main.o
    0x080010e4   0x00000084   Code   RO          359    i.Stop_Motor_withS  motor_ctrl.o
    0x08001168   0x00000028   Code   RO          544    i.SysTick_CLKSourceConfig  misc.o
    0x08001190   0x00000002   Code   RO          162    i.SysTick_Handler   stm32f10x_it.o
    0x08001192   0x00000002   PAD
    0x08001194   0x00000060   Code   RO          109    i.SystemInit        system_stm32f10x.o
    0x080011f4   0x00000020   Code   RO          277    i.TIM1Nvic_Config_Init  timer1.o
    0x08001214   0x00000058   Code   RO          278    i.TIM1_Config_Init  timer1.o
    0x0800126c   0x0000009c   Code   RO          279    i.TIM1_UP_IRQHandler  timer1.o
    0x08001308   0x0000002c   Code   RO          219    i.TIM2_GPIO_PWM_Init  gpio_motor.o
    0x08001334   0x00000074   Code   RO          253    i.TIM2_PWM_Config_Init  pwm.o
    0x080013a8   0x0000002c   Code   RO          220    i.TIM3_GPIO_PWM_Init  gpio_motor.o
    0x080013d4   0x00000074   Code   RO          254    i.TIM3_PWM_Config_Init  pwm.o
    0x08001448   0x0000002c   Code   RO          221    i.TIM4_GPIO_PWM_Init  gpio_motor.o
    0x08001474   0x00000074   Code   RO          255    i.TIM4_PWM_Config_Init  pwm.o
    0x080014e8   0x00000006   Code   RO          754    i.TIM_ClearFlag     stm32f10x_tim.o
    0x080014ee   0x00000006   Code   RO          755    i.TIM_ClearITPendingBit  stm32f10x_tim.o
    0x080014f4   0x00000018   Code   RO          760    i.TIM_Cmd           stm32f10x_tim.o
    0x0800150c   0x00000022   Code   RO          781    i.TIM_GetITStatus   stm32f10x_tim.o
    0x0800152e   0x00000012   Code   RO          785    i.TIM_ITConfig      stm32f10x_tim.o
    0x08001540   0x000000a4   Code   RO          794    i.TIM_OC2Init       stm32f10x_tim.o
    0x080015e4   0x0000001a   Code   RO          797    i.TIM_OC2PreloadConfig  stm32f10x_tim.o
    0x080015fe   0x00000020   Code   RO          360    i.TIM_OCENSet       motor_ctrl.o
    0x0800161e   0x00000002   PAD
    0x08001620   0x000000a4   Code   RO          831    i.TIM_TimeBaseInit  stm32f10x_tim.o
    0x080016c4   0x0000001e   Code   RO          435    i.USART1Nvic_Config_Init  usart_master.o
    0x080016e2   0x00000002   PAD
    0x080016e4   0x00000148   Code   RO          436    i.USART1_IRQHandler  usart_master.o
    0x0800182c   0x00000058   Code   RO          437    i.USART1_Master_Init  usart_master.o
    0x08001884   0x00000018   Code   RO         3325    i.USART_Cmd         stm32f10x_usart.o
    0x0800189c   0x0000009c   Code   RO         3327    i.USART_DeInit      stm32f10x_usart.o
    0x08001938   0x0000001a   Code   RO         3328    i.USART_GetFlagStatus  stm32f10x_usart.o
    0x08001952   0x0000004a   Code   RO         3331    i.USART_ITConfig    stm32f10x_usart.o
    0x0800199c   0x000000d8   Code   RO         3332    i.USART_Init        stm32f10x_usart.o
    0x08001a74   0x0000000a   Code   RO         3339    i.USART_ReceiveData  stm32f10x_usart.o
    0x08001a7e   0x00000008   Code   RO         3342    i.USART_SendData    stm32f10x_usart.o
    0x08001a86   0x00000004   Code   RO          163    i.UsageFault_Handler  stm32f10x_it.o
    0x08001a8a   0x00000002   PAD
    0x08001a8c   0x00000044   Code   RO          478    i.delay_init        delay.o
    0x08001ad0   0x0000004c   Code   RO          479    i.delay_ms          delay.o
    0x08001b1c   0x00000018   Code   RO          480    i.delay_s           delay.o
    0x08001b34   0x0000004c   Code   RO          481    i.delay_us          delay.o
    0x08001b80   0x00000094   Code   RO            4    i.main              main.o
    0x08001c14   0x00000062   Code   RO         4314    x$fpl$d2f           fz_ws.l(d2f.o)
    0x08001c76   0x00000002   PAD
    0x08001c78   0x000002b0   Code   RO         4317    x$fpl$ddiv          fz_ws.l(ddiv.o)
    0x08001f28   0x0000002e   Code   RO         4321    x$fpl$dflt          fz_ws.l(dflt_clz.o)
    0x08001f56   0x00000002   PAD
    0x08001f58   0x00000154   Code   RO         4326    x$fpl$dmul          fz_ws.l(dmul.o)
    0x080020ac   0x0000009c   Code   RO         4329    x$fpl$dnaninf       fz_ws.l(dnaninf.o)
    0x08002148   0x0000000c   Code   RO         4331    x$fpl$dretinf       fz_ws.l(dretinf.o)
    0x08002154   0x0000000a   Code   RO         4333    x$fpl$fretinf       fz_ws.l(fretinf.o)
    0x0800215e   0x00000000   Code   RO         4335    x$fpl$usenofp       fz_ws.l(usenofp.o)
    0x0800215e   0x000006c2   Data   RO          361    .constdata          motor_ctrl.o
    0x08002820   0x00000020   Data   RO         4488    Region$$Table       anon$$obj.o


    Execution Region RW_IRAM1 (Base: 0x20000000, Size: 0x000007b8, Max: 0x0000c000, ABSOLUTE)

    Base Addr    Size         Type   Attr      Idx    E Section Name        Object

    0x20000000   0x0000000c   Data   RW            6    .data               main.o
    0x2000000c   0x00000014   Data   RW          110    .data               system_stm32f10x.o
    0x20000020   0x00000004   Data   RW          482    .data               delay.o
    0x20000024   0x00000014   Data   RW         2724    .data               stm32f10x_rcc.o
    0x20000038   0x00000048   Data   RW         3589    .data               os_core.o
    0x20000080   0x000000d4   Zero   RW            5    .bss                main.o
    0x20000154   0x00000060   Zero   RW         4362    .bss                c_w.l(libspace.o)
    0x200001b4   0x00000004   PAD
    0x200001b8   0x00000200   Zero   RW          534    HEAP                startup_stm32f10x_md.o
    0x200003b8   0x00000400   Zero   RW          533    STACK               startup_stm32f10x_md.o


==============================================================================

Image component sizes


      Code (inc. data)   RO Data    RW Data    ZI Data      Debug   Object Name

         0          0          0          0          0         32   core_cm3.o
       244         26          0          4          0       2225   delay.o
       284         30          0          0          0       2666   gpio_motor.o
       600         32          0          0          0       2089   ironhand.o
        40          6          0          0          0        484   key8.o
      1064        102          0         12        212     257602   main.o
       172         22          0          0          0       2033   misc.o
       124         20          0          0          0        948   motor.o
       584         80       1730          0          0       5679   motor_ctrl.o
         0          0          0         72          0       8917   os_core.o
       180         36          0          0          0        324   os_cpu_a.o
         2          0          0          0          0        423   os_cpu_c.o
       348          8          0          0          0       2085   pwm.o
        64         26        236          0       1536        792   startup_stm32f10x_md.o
       286          0          0          0          0       3012   stm32f10x_gpio.o
        24          0          0          0          0       3257   stm32f10x_it.o
       340         44          0         20          0       5540   stm32f10x_rcc.o
       442         52          0          0          0       5335   stm32f10x_tim.o
       514         28          0          0          0       5964   stm32f10x_usart.o
        12          0          0          0          0        449   sys.o
       328         28          0         20          0       2057   system_stm32f10x.o
       276         24          0          0          0       2438   timer1.o
       726         26          0          0          0       4823   usart_master.o

    ----------------------------------------------------------------------
      6674        590       1998        128       1748     319174   Object Totals
         0          0         32          0          0          0   (incl. Generated)
        20          0          0          0          0          0   (incl. Padding)

    ----------------------------------------------------------------------

      Code (inc. data)   RO Data    RW Data    ZI Data      Debug   Library Member Name

         8          0          0          0          0         68   __main.o
         0          0          0          0          0          0   __rtentry.o
        12          0          0          0          0          0   __rtentry2.o
         6          0          0          0          0          0   __rtentry4.o
        52          8          0          0          0          0   __scatter.o
        26          0          0          0          0          0   __scatter_copy.o
        28          0          0          0          0          0   __scatter_zi.o
        18          0          0          0          0         80   exit.o
         6          0          0          0          0        152   heapauxi.o
         0          0          0          0          0          0   indicate_semi.o
         2          0          0          0          0          0   libinit.o
         2          0          0          0          0          0   libinit2.o
         2          0          0          0          0          0   libshutdown.o
         2          0          0          0          0          0   libshutdown2.o
         8          4          0          0         96         68   libspace.o
         2          0          0          0          0          0   rtexit.o
        10          0          0          0          0          0   rtexit2.o
        12          4          0          0          0         68   sys_exit.o
        74          0          0          0          0         80   sys_stackheap_outer.o
         2          0          0          0          0         68   use_no_semi.o
        98          4          0          0          0         92   d2f.o
       688        140          0          0          0        208   ddiv.o
        46          0          0          0          0         68   dflt_clz.o
       340         12          0          0          0        104   dmul.o
       156          4          0          0          0         92   dnaninf.o
        12          0          0          0          0         68   dretinf.o
        10          0          0          0          0         68   fretinf.o
         0          0          0          0          0          0   usenofp.o

    ----------------------------------------------------------------------
      1632        176          0          0        100       1284   Library Totals
        10          0          0          0          4          0   (incl. Padding)

    ----------------------------------------------------------------------

      Code (inc. data)   RO Data    RW Data    ZI Data      Debug   Library Name

       272         16          0          0         96        584   c_w.l
      1350        160          0          0          0        700   fz_ws.l

    ----------------------------------------------------------------------
      1632        176          0          0        100       1284   Library Totals

    ----------------------------------------------------------------------

==============================================================================


      Code (inc. data)   RO Data    RW Data    ZI Data      Debug   

      8306        766       1998        128       1848     316138   Grand Totals
      8306        766       1998        128       1848     316138   ELF Image Totals
      8306        766       1998        128          0          0   ROM Totals

==============================================================================

    Total RO  Size (Code + RO Data)                10304 (  10.06kB)
    Total RW  Size (RW Data + ZI Data)              1976 (   1.93kB)
    Total ROM Size (Code + RO Data + RW Data)      10432 (  10.19kB)

==============================================================================

